{
	"contracts/test.sol": {
		"VoltVerify": {
			"abi": [
				{
					"inputs": [],
					"stateMutability": "nonpayable",
					"type": "constructor"
				},
				{
					"inputs": [
						{
							"internalType": "string",
							"name": "_productId",
							"type": "string"
						},
						{
							"internalType": "string",
							"name": "_serialNumber",
							"type": "string"
						},
						{
							"internalType": "string",
							"name": "_barcode",
							"type": "string"
						}
					],
					"name": "addProduct",
					"outputs": [],
					"stateMutability": "nonpayable",
					"type": "function"
				},
				{
					"inputs": [
						{
							"internalType": "uint256",
							"name": "",
							"type": "uint256"
						}
					],
					"name": "fakeReports",
					"outputs": [
						{
							"internalType": "string",
							"name": "productId",
							"type": "string"
						},
						{
							"internalType": "string",
							"name": "sellerName",
							"type": "string"
						},
						{
							"internalType": "string",
							"name": "sellerDetails",
							"type": "string"
						}
					],
					"stateMutability": "view",
					"type": "function"
				},
				{
					"inputs": [
						{
							"internalType": "uint256",
							"name": "index",
							"type": "uint256"
						}
					],
					"name": "getFakeReport",
					"outputs": [
						{
							"internalType": "string",
							"name": "",
							"type": "string"
						},
						{
							"internalType": "string",
							"name": "",
							"type": "string"
						},
						{
							"internalType": "string",
							"name": "",
							"type": "string"
						}
					],
					"stateMutability": "view",
					"type": "function"
				},
				{
					"inputs": [],
					"name": "getFakeReportsCount",
					"outputs": [
						{
							"internalType": "uint256",
							"name": "",
							"type": "uint256"
						}
					],
					"stateMutability": "view",
					"type": "function"
				},
				{
					"inputs": [],
					"name": "owner",
					"outputs": [
						{
							"internalType": "address",
							"name": "",
							"type": "address"
						}
					],
					"stateMutability": "view",
					"type": "function"
				},
				{
					"inputs": [
						{
							"internalType": "string",
							"name": "",
							"type": "string"
						}
					],
					"name": "products",
					"outputs": [
						{
							"internalType": "string",
							"name": "productId",
							"type": "string"
						},
						{
							"internalType": "string",
							"name": "serialNumber",
							"type": "string"
						},
						{
							"internalType": "string",
							"name": "barcode",
							"type": "string"
						},
						{
							"internalType": "bool",
							"name": "isAuthentic",
							"type": "bool"
						}
					],
					"stateMutability": "view",
					"type": "function"
				},
				{
					"inputs": [
						{
							"internalType": "string",
							"name": "_productId",
							"type": "string"
						},
						{
							"internalType": "string",
							"name": "_sellerName",
							"type": "string"
						},
						{
							"internalType": "string",
							"name": "_sellerDetails",
							"type": "string"
						}
					],
					"name": "reportFake",
					"outputs": [],
					"stateMutability": "nonpayable",
					"type": "function"
				},
				{
					"inputs": [
						{
							"internalType": "string",
							"name": "_barcode",
							"type": "string"
						}
					],
					"name": "verifyProduct",
					"outputs": [
						{
							"internalType": "bool",
							"name": "",
							"type": "bool"
						},
						{
							"internalType": "string",
							"name": "",
							"type": "string"
						}
					],
					"stateMutability": "view",
					"type": "function"
				}
			],
			"devdoc": {
				"kind": "dev",
				"methods": {},
				"version": 1
			},
			"evm": {
				"assembly": "    /* \"contracts/test.sol\":61:1897  contract VoltVerify {... */\n  mstore(0x40, 0x80)\n    /* \"contracts/test.sol\":584:635  constructor() {... */\n  callvalue\n  dup1\n  iszero\n  tag_1\n  jumpi\n  0x00\n  dup1\n  revert\ntag_1:\n  pop\n    /* \"contracts/test.sol\":617:627  msg.sender */\n  caller\n    /* \"contracts/test.sol\":609:614  owner */\n  0x00\n  dup1\n    /* \"contracts/test.sol\":609:627  owner = msg.sender */\n  0x0100\n  exp\n  dup2\n  sload\n  dup2\n  0xffffffffffffffffffffffffffffffffffffffff\n  mul\n  not\n  and\n  swap1\n  dup4\n  0xffffffffffffffffffffffffffffffffffffffff\n  and\n  mul\n  or\n  swap1\n  sstore\n  pop\n    /* \"contracts/test.sol\":61:1897  contract VoltVerify {... */\n  dataSize(sub_0)\n  dup1\n  dataOffset(sub_0)\n  0x00\n  codecopy\n  0x00\n  return\nstop\n\nsub_0: assembly {\n        /* \"contracts/test.sol\":61:1897  contract VoltVerify {... */\n      mstore(0x40, 0x80)\n      callvalue\n      dup1\n      iszero\n      tag_1\n      jumpi\n      0x00\n      dup1\n      revert\n    tag_1:\n      pop\n      jumpi(tag_2, lt(calldatasize, 0x04))\n      shr(0xe0, calldataload(0x00))\n      dup1\n      0x92efc453\n      gt\n      tag_11\n      jumpi\n      dup1\n      0x92efc453\n      eq\n      tag_7\n      jumpi\n      dup1\n      0x960394cf\n      eq\n      tag_8\n      jumpi\n      dup1\n      0xc9237eef\n      eq\n      tag_9\n      jumpi\n      dup1\n      0xd2dd015e\n      eq\n      tag_10\n      jumpi\n      jump(tag_2)\n    tag_11:\n      dup1\n      0x0186a423\n      eq\n      tag_3\n      jumpi\n      dup1\n      0x0e34b00e\n      eq\n      tag_4\n      jumpi\n      dup1\n      0x880162b1\n      eq\n      tag_5\n      jumpi\n      dup1\n      0x8da5cb5b\n      eq\n      tag_6\n      jumpi\n    tag_2:\n      0x00\n      dup1\n      revert\n        /* \"contracts/test.sol\":371:413  mapping(string => Product) public products */\n    tag_3:\n      tag_12\n      0x04\n      dup1\n      calldatasize\n      sub\n      dup2\n      add\n      swap1\n      tag_13\n      swap2\n      swap1\n      tag_14\n      jump\t// in\n    tag_13:\n      tag_15\n      jump\t// in\n    tag_12:\n      mload(0x40)\n      tag_16\n      swap5\n      swap4\n      swap3\n      swap2\n      swap1\n      tag_17\n      jump\t// in\n    tag_16:\n      mload(0x40)\n      dup1\n      swap2\n      sub\n      swap1\n      return\n        /* \"contracts/test.sol\":643:940  function addProduct(string memory _productId, string memory _serialNumber, string memory _barcode) public onlyOwner {... */\n    tag_4:\n      tag_18\n      0x04\n      dup1\n      calldatasize\n      sub\n      dup2\n      add\n      swap1\n      tag_19\n      swap2\n      swap1\n      tag_20\n      jump\t// in\n    tag_19:\n      tag_21\n      jump\t// in\n    tag_18:\n      stop\n        /* \"contracts/test.sol\":1281:1475  function reportFake(string memory _productId, string memory _sellerName, string memory _sellerDetails) public {... */\n    tag_5:\n      tag_22\n      0x04\n      dup1\n      calldatasize\n      sub\n      dup2\n      add\n      swap1\n      tag_23\n      swap2\n      swap1\n      tag_20\n      jump\t// in\n    tag_23:\n      tag_24\n      jump\t// in\n    tag_22:\n      stop\n        /* \"contracts/test.sol\":344:364  address public owner */\n    tag_6:\n      tag_25\n      tag_26\n      jump\t// in\n    tag_25:\n      mload(0x40)\n      tag_27\n      swap2\n      swap1\n      tag_28\n      jump\t// in\n    tag_27:\n      mload(0x40)\n      dup1\n      swap2\n      sub\n      swap1\n      return\n        /* \"contracts/test.sol\":948:1273  function verifyProduct(string memory _barcode) public view returns (bool, string memory) {... */\n    tag_7:\n      tag_29\n      0x04\n      dup1\n      calldatasize\n      sub\n      dup2\n      add\n      swap1\n      tag_30\n      swap2\n      swap1\n      tag_14\n      jump\t// in\n    tag_30:\n      tag_31\n      jump\t// in\n    tag_29:\n      mload(0x40)\n      tag_32\n      swap3\n      swap2\n      swap1\n      tag_33\n      jump\t// in\n    tag_32:\n      mload(0x40)\n      dup1\n      swap2\n      sub\n      swap1\n      return\n        /* \"contracts/test.sol\":1483:1585  function getFakeReportsCount() public view returns (uint) {... */\n    tag_8:\n      tag_34\n      tag_35\n      jump\t// in\n    tag_34:\n      mload(0x40)\n      tag_36\n      swap2\n      swap1\n      tag_37\n      jump\t// in\n    tag_36:\n      mload(0x40)\n      dup1\n      swap2\n      sub\n      swap1\n      return\n        /* \"contracts/test.sol\":1593:1894  function getFakeReport(uint index) public view returns (string memory, string memory, string memory) {... */\n    tag_9:\n      tag_38\n      0x04\n      dup1\n      calldatasize\n      sub\n      dup2\n      add\n      swap1\n      tag_39\n      swap2\n      swap1\n      tag_40\n      jump\t// in\n    tag_39:\n      tag_41\n      jump\t// in\n    tag_38:\n      mload(0x40)\n      tag_42\n      swap4\n      swap3\n      swap2\n      swap1\n      tag_43\n      jump\t// in\n    tag_42:\n      mload(0x40)\n      dup1\n      swap2\n      sub\n      swap1\n      return\n        /* \"contracts/test.sol\":442:469  Report[] public fakeReports */\n    tag_10:\n      tag_44\n      0x04\n      dup1\n      calldatasize\n      sub\n      dup2\n      add\n      swap1\n      tag_45\n      swap2\n      swap1\n      tag_40\n      jump\t// in\n    tag_45:\n      tag_46\n      jump\t// in\n    tag_44:\n      mload(0x40)\n      tag_47\n      swap4\n      swap3\n      swap2\n      swap1\n      tag_43\n      jump\t// in\n    tag_47:\n      mload(0x40)\n      dup1\n      swap2\n      sub\n      swap1\n      return\n        /* \"contracts/test.sol\":371:413  mapping(string => Product) public products */\n    tag_15:\n      0x01\n      dup2\n      dup1\n      mload\n      0x20\n      dup2\n      add\n      dup3\n      add\n      dup1\n      mload\n      dup5\n      dup3\n      mstore\n      0x20\n      dup4\n      add\n      0x20\n      dup6\n      add\n      keccak256\n      dup2\n      dup4\n      mstore\n      dup1\n      swap6\n      pop\n      pop\n      pop\n      pop\n      pop\n      pop\n      0x00\n      swap2\n      pop\n      swap1\n      pop\n      dup1\n      0x00\n      add\n      dup1\n      sload\n      tag_48\n      swap1\n      tag_49\n      jump\t// in\n    tag_48:\n      dup1\n      0x1f\n      add\n      0x20\n      dup1\n      swap2\n      div\n      mul\n      0x20\n      add\n      mload(0x40)\n      swap1\n      dup2\n      add\n      0x40\n      mstore\n      dup1\n      swap3\n      swap2\n      swap1\n      dup2\n      dup2\n      mstore\n      0x20\n      add\n      dup3\n      dup1\n      sload\n      tag_50\n      swap1\n      tag_49\n      jump\t// in\n    tag_50:\n      dup1\n      iszero\n      tag_51\n      jumpi\n      dup1\n      0x1f\n      lt\n      tag_52\n      jumpi\n      0x0100\n      dup1\n      dup4\n      sload\n      div\n      mul\n      dup4\n      mstore\n      swap2\n      0x20\n      add\n      swap2\n      jump(tag_51)\n    tag_52:\n      dup3\n      add\n      swap2\n      swap1\n      0x00\n      mstore\n      keccak256(0x00, 0x20)\n      swap1\n    tag_53:\n      dup2\n      sload\n      dup2\n      mstore\n      swap1\n      0x01\n      add\n      swap1\n      0x20\n      add\n      dup1\n      dup4\n      gt\n      tag_53\n      jumpi\n      dup3\n      swap1\n      sub\n      0x1f\n      and\n      dup3\n      add\n      swap2\n    tag_51:\n      pop\n      pop\n      pop\n      pop\n      pop\n      swap1\n      dup1\n      0x01\n      add\n      dup1\n      sload\n      tag_54\n      swap1\n      tag_49\n      jump\t// in\n    tag_54:\n      dup1\n      0x1f\n      add\n      0x20\n      dup1\n      swap2\n      div\n      mul\n      0x20\n      add\n      mload(0x40)\n      swap1\n      dup2\n      add\n      0x40\n      mstore\n      dup1\n      swap3\n      swap2\n      swap1\n      dup2\n      dup2\n      mstore\n      0x20\n      add\n      dup3\n      dup1\n      sload\n      tag_55\n      swap1\n      tag_49\n      jump\t// in\n    tag_55:\n      dup1\n      iszero\n      tag_56\n      jumpi\n      dup1\n      0x1f\n      lt\n      tag_57\n      jumpi\n      0x0100\n      dup1\n      dup4\n      sload\n      div\n      mul\n      dup4\n      mstore\n      swap2\n      0x20\n      add\n      swap2\n      jump(tag_56)\n    tag_57:\n      dup3\n      add\n      swap2\n      swap1\n      0x00\n      mstore\n      keccak256(0x00, 0x20)\n      swap1\n    tag_58:\n      dup2\n      sload\n      dup2\n      mstore\n      swap1\n      0x01\n      add\n      swap1\n      0x20\n      add\n      dup1\n      dup4\n      gt\n      tag_58\n      jumpi\n      dup3\n      swap1\n      sub\n      0x1f\n      and\n      dup3\n      add\n      swap2\n    tag_56:\n      pop\n      pop\n      pop\n      pop\n      pop\n      swap1\n      dup1\n      0x02\n      add\n      dup1\n      sload\n      tag_59\n      swap1\n      tag_49\n      jump\t// in\n    tag_59:\n      dup1\n      0x1f\n      add\n      0x20\n      dup1\n      swap2\n      div\n      mul\n      0x20\n      add\n      mload(0x40)\n      swap1\n      dup2\n      add\n      0x40\n      mstore\n      dup1\n      swap3\n      swap2\n      swap1\n      dup2\n      dup2\n      mstore\n      0x20\n      add\n      dup3\n      dup1\n      sload\n      tag_60\n      swap1\n      tag_49\n      jump\t// in\n    tag_60:\n      dup1\n      iszero\n      tag_61\n      jumpi\n      dup1\n      0x1f\n      lt\n      tag_62\n      jumpi\n      0x0100\n      dup1\n      dup4\n      sload\n      div\n      mul\n      dup4\n      mstore\n      swap2\n      0x20\n      add\n      swap2\n      jump(tag_61)\n    tag_62:\n      dup3\n      add\n      swap2\n      swap1\n      0x00\n      mstore\n      keccak256(0x00, 0x20)\n      swap1\n    tag_63:\n      dup2\n      sload\n      dup2\n      mstore\n      swap1\n      0x01\n      add\n      swap1\n      0x20\n      add\n      dup1\n      dup4\n      gt\n      tag_63\n      jumpi\n      dup3\n      swap1\n      sub\n      0x1f\n      and\n      dup3\n      add\n      swap2\n    tag_61:\n      pop\n      pop\n      pop\n      pop\n      pop\n      swap1\n      dup1\n      0x03\n      add\n      0x00\n      swap1\n      sload\n      swap1\n      0x0100\n      exp\n      swap1\n      div\n      0xff\n      and\n      swap1\n      pop\n      dup5\n      jump\t// out\n        /* \"contracts/test.sol\":643:940  function addProduct(string memory _productId, string memory _serialNumber, string memory _barcode) public onlyOwner {... */\n    tag_21:\n        /* \"contracts/test.sol\":532:537  owner */\n      0x00\n      dup1\n      sload\n      swap1\n      0x0100\n      exp\n      swap1\n      div\n      0xffffffffffffffffffffffffffffffffffffffff\n      and\n        /* \"contracts/test.sol\":518:537  msg.sender == owner */\n      0xffffffffffffffffffffffffffffffffffffffff\n      and\n        /* \"contracts/test.sol\":518:528  msg.sender */\n      caller\n        /* \"contracts/test.sol\":518:537  msg.sender == owner */\n      0xffffffffffffffffffffffffffffffffffffffff\n      and\n      eq\n        /* \"contracts/test.sol\":510:556  require(msg.sender == owner, \"Not authorized\") */\n      tag_65\n      jumpi\n      mload(0x40)\n      0x08c379a000000000000000000000000000000000000000000000000000000000\n      dup2\n      mstore\n      0x04\n      add\n      tag_66\n      swap1\n      tag_67\n      jump\t// in\n    tag_66:\n      mload(0x40)\n      dup1\n      swap2\n      sub\n      swap1\n      revert\n    tag_65:\n        /* \"contracts/test.sol\":822:823  0 */\n      0x00\n        /* \"contracts/test.sol\":784:792  products */\n      0x01\n        /* \"contracts/test.sol\":793:801  _barcode */\n      dup3\n        /* \"contracts/test.sol\":784:802  products[_barcode] */\n      mload(0x40)\n      tag_69\n      swap2\n      swap1\n      tag_70\n      jump\t// in\n    tag_69:\n      swap1\n      dup2\n      mstore\n      0x20\n      add\n      mload(0x40)\n      dup1\n      swap2\n      sub\n      swap1\n      keccak256\n        /* \"contracts/test.sol\":784:810  products[_barcode].barcode */\n      0x02\n      add\n        /* \"contracts/test.sol\":778:818  bytes(products[_barcode].barcode).length */\n      dup1\n      sload\n      tag_71\n      swap1\n      tag_49\n      jump\t// in\n    tag_71:\n      swap1\n      pop\n        /* \"contracts/test.sol\":778:823  bytes(products[_barcode].barcode).length == 0 */\n      eq\n        /* \"contracts/test.sol\":770:850  require(bytes(products[_barcode].barcode).length == 0, \"Product already exists\") */\n      tag_72\n      jumpi\n      mload(0x40)\n      0x08c379a000000000000000000000000000000000000000000000000000000000\n      dup2\n      mstore\n      0x04\n      add\n      tag_73\n      swap1\n      tag_74\n      jump\t// in\n    tag_73:\n      mload(0x40)\n      dup1\n      swap2\n      sub\n      swap1\n      revert\n    tag_72:\n        /* \"contracts/test.sol\":882:932  Product(_productId, _serialNumber, _barcode, true) */\n      mload(0x40)\n      dup1\n      0x80\n      add\n      0x40\n      mstore\n      dup1\n        /* \"contracts/test.sol\":890:900  _productId */\n      dup5\n        /* \"contracts/test.sol\":882:932  Product(_productId, _serialNumber, _barcode, true) */\n      dup2\n      mstore\n      0x20\n      add\n        /* \"contracts/test.sol\":902:915  _serialNumber */\n      dup4\n        /* \"contracts/test.sol\":882:932  Product(_productId, _serialNumber, _barcode, true) */\n      dup2\n      mstore\n      0x20\n      add\n        /* \"contracts/test.sol\":917:925  _barcode */\n      dup3\n        /* \"contracts/test.sol\":882:932  Product(_productId, _serialNumber, _barcode, true) */\n      dup2\n      mstore\n      0x20\n      add\n        /* \"contracts/test.sol\":927:931  true */\n      0x01\n        /* \"contracts/test.sol\":882:932  Product(_productId, _serialNumber, _barcode, true) */\n      iszero\n      iszero\n      dup2\n      mstore\n      pop\n        /* \"contracts/test.sol\":861:869  products */\n      0x01\n        /* \"contracts/test.sol\":870:878  _barcode */\n      dup3\n        /* \"contracts/test.sol\":861:879  products[_barcode] */\n      mload(0x40)\n      tag_75\n      swap2\n      swap1\n      tag_70\n      jump\t// in\n    tag_75:\n      swap1\n      dup2\n      mstore\n      0x20\n      add\n      mload(0x40)\n      dup1\n      swap2\n      sub\n      swap1\n      keccak256\n        /* \"contracts/test.sol\":861:932  products[_barcode] = Product(_productId, _serialNumber, _barcode, true) */\n      0x00\n      dup3\n      add\n      mload\n      dup2\n      0x00\n      add\n      swap1\n      dup2\n      tag_76\n      swap2\n      swap1\n      tag_77\n      jump\t// in\n    tag_76:\n      pop\n      0x20\n      dup3\n      add\n      mload\n      dup2\n      0x01\n      add\n      swap1\n      dup2\n      tag_78\n      swap2\n      swap1\n      tag_77\n      jump\t// in\n    tag_78:\n      pop\n      0x40\n      dup3\n      add\n      mload\n      dup2\n      0x02\n      add\n      swap1\n      dup2\n      tag_79\n      swap2\n      swap1\n      tag_77\n      jump\t// in\n    tag_79:\n      pop\n      0x60\n      dup3\n      add\n      mload\n      dup2\n      0x03\n      add\n      exp(0x0100, 0x00)\n      dup2\n      sload\n      dup2\n      0xff\n      mul\n      not\n      and\n      swap1\n      dup4\n      iszero\n      iszero\n      mul\n      or\n      swap1\n      sstore\n      pop\n      swap1\n      pop\n      pop\n        /* \"contracts/test.sol\":643:940  function addProduct(string memory _productId, string memory _serialNumber, string memory _barcode) public onlyOwner {... */\n      pop\n      pop\n      pop\n      jump\t// out\n        /* \"contracts/test.sol\":1281:1475  function reportFake(string memory _productId, string memory _sellerName, string memory _sellerDetails) public {... */\n    tag_24:\n        /* \"contracts/test.sol\":1402:1413  fakeReports */\n      0x02\n        /* \"contracts/test.sol\":1419:1466  Report(_productId, _sellerName, _sellerDetails) */\n      mload(0x40)\n      dup1\n      0x60\n      add\n      0x40\n      mstore\n      dup1\n        /* \"contracts/test.sol\":1426:1436  _productId */\n      dup6\n        /* \"contracts/test.sol\":1419:1466  Report(_productId, _sellerName, _sellerDetails) */\n      dup2\n      mstore\n      0x20\n      add\n        /* \"contracts/test.sol\":1438:1449  _sellerName */\n      dup5\n        /* \"contracts/test.sol\":1419:1466  Report(_productId, _sellerName, _sellerDetails) */\n      dup2\n      mstore\n      0x20\n      add\n        /* \"contracts/test.sol\":1451:1465  _sellerDetails */\n      dup4\n        /* \"contracts/test.sol\":1419:1466  Report(_productId, _sellerName, _sellerDetails) */\n      dup2\n      mstore\n      pop\n        /* \"contracts/test.sol\":1402:1467  fakeReports.push(Report(_productId, _sellerName, _sellerDetails)) */\n      swap1\n      dup1\n      0x01\n      dup2\n      sload\n      add\n      dup1\n      dup3\n      sstore\n      dup1\n      swap2\n      pop\n      pop\n      0x01\n      swap1\n      sub\n      swap1\n      0x00\n      mstore\n      keccak256(0x00, 0x20)\n      swap1\n      0x03\n      mul\n      add\n      0x00\n      swap1\n      swap2\n      swap1\n      swap2\n      swap1\n      swap2\n      pop\n      0x00\n      dup3\n      add\n      mload\n      dup2\n      0x00\n      add\n      swap1\n      dup2\n      tag_82\n      swap2\n      swap1\n      tag_77\n      jump\t// in\n    tag_82:\n      pop\n      0x20\n      dup3\n      add\n      mload\n      dup2\n      0x01\n      add\n      swap1\n      dup2\n      tag_83\n      swap2\n      swap1\n      tag_77\n      jump\t// in\n    tag_83:\n      pop\n      0x40\n      dup3\n      add\n      mload\n      dup2\n      0x02\n      add\n      swap1\n      dup2\n      tag_84\n      swap2\n      swap1\n      tag_77\n      jump\t// in\n    tag_84:\n      pop\n      pop\n      pop\n        /* \"contracts/test.sol\":1281:1475  function reportFake(string memory _productId, string memory _sellerName, string memory _sellerDetails) public {... */\n      pop\n      pop\n      pop\n      jump\t// out\n        /* \"contracts/test.sol\":344:364  address public owner */\n    tag_26:\n      0x00\n      dup1\n      sload\n      swap1\n      0x0100\n      exp\n      swap1\n      div\n      0xffffffffffffffffffffffffffffffffffffffff\n      and\n      dup2\n      jump\t// out\n        /* \"contracts/test.sol\":948:1273  function verifyProduct(string memory _barcode) public view returns (bool, string memory) {... */\n    tag_31:\n        /* \"contracts/test.sol\":1016:1020  bool */\n      0x00\n        /* \"contracts/test.sol\":1022:1035  string memory */\n      0x60\n        /* \"contracts/test.sol\":1048:1070  Product memory product */\n      0x00\n        /* \"contracts/test.sol\":1073:1081  products */\n      0x01\n        /* \"contracts/test.sol\":1082:1090  _barcode */\n      dup5\n        /* \"contracts/test.sol\":1073:1091  products[_barcode] */\n      mload(0x40)\n      tag_86\n      swap2\n      swap1\n      tag_70\n      jump\t// in\n    tag_86:\n      swap1\n      dup2\n      mstore\n      0x20\n      add\n      mload(0x40)\n      dup1\n      swap2\n      sub\n      swap1\n      keccak256\n        /* \"contracts/test.sol\":1048:1091  Product memory product = products[_barcode] */\n      mload(0x40)\n      dup1\n      0x80\n      add\n      0x40\n      mstore\n      swap1\n      dup2\n      0x00\n      dup3\n      add\n      dup1\n      sload\n      tag_87\n      swap1\n      tag_49\n      jump\t// in\n    tag_87:\n      dup1\n      0x1f\n      add\n      0x20\n      dup1\n      swap2\n      div\n      mul\n      0x20\n      add\n      mload(0x40)\n      swap1\n      dup2\n      add\n      0x40\n      mstore\n      dup1\n      swap3\n      swap2\n      swap1\n      dup2\n      dup2\n      mstore\n      0x20\n      add\n      dup3\n      dup1\n      sload\n      tag_88\n      swap1\n      tag_49\n      jump\t// in\n    tag_88:\n      dup1\n      iszero\n      tag_89\n      jumpi\n      dup1\n      0x1f\n      lt\n      tag_90\n      jumpi\n      0x0100\n      dup1\n      dup4\n      sload\n      div\n      mul\n      dup4\n      mstore\n      swap2\n      0x20\n      add\n      swap2\n      jump(tag_89)\n    tag_90:\n      dup3\n      add\n      swap2\n      swap1\n      0x00\n      mstore\n      keccak256(0x00, 0x20)\n      swap1\n    tag_91:\n      dup2\n      sload\n      dup2\n      mstore\n      swap1\n      0x01\n      add\n      swap1\n      0x20\n      add\n      dup1\n      dup4\n      gt\n      tag_91\n      jumpi\n      dup3\n      swap1\n      sub\n      0x1f\n      and\n      dup3\n      add\n      swap2\n    tag_89:\n      pop\n      pop\n      pop\n      pop\n      pop\n      dup2\n      mstore\n      0x20\n      add\n      0x01\n      dup3\n      add\n      dup1\n      sload\n      tag_92\n      swap1\n      tag_49\n      jump\t// in\n    tag_92:\n      dup1\n      0x1f\n      add\n      0x20\n      dup1\n      swap2\n      div\n      mul\n      0x20\n      add\n      mload(0x40)\n      swap1\n      dup2\n      add\n      0x40\n      mstore\n      dup1\n      swap3\n      swap2\n      swap1\n      dup2\n      dup2\n      mstore\n      0x20\n      add\n      dup3\n      dup1\n      sload\n      tag_93\n      swap1\n      tag_49\n      jump\t// in\n    tag_93:\n      dup1\n      iszero\n      tag_94\n      jumpi\n      dup1\n      0x1f\n      lt\n      tag_95\n      jumpi\n      0x0100\n      dup1\n      dup4\n      sload\n      div\n      mul\n      dup4\n      mstore\n      swap2\n      0x20\n      add\n      swap2\n      jump(tag_94)\n    tag_95:\n      dup3\n      add\n      swap2\n      swap1\n      0x00\n      mstore\n      keccak256(0x00, 0x20)\n      swap1\n    tag_96:\n      dup2\n      sload\n      dup2\n      mstore\n      swap1\n      0x01\n      add\n      swap1\n      0x20\n      add\n      dup1\n      dup4\n      gt\n      tag_96\n      jumpi\n      dup3\n      swap1\n      sub\n      0x1f\n      and\n      dup3\n      add\n      swap2\n    tag_94:\n      pop\n      pop\n      pop\n      pop\n      pop\n      dup2\n      mstore\n      0x20\n      add\n      0x02\n      dup3\n      add\n      dup1\n      sload\n      tag_97\n      swap1\n      tag_49\n      jump\t// in\n    tag_97:\n      dup1\n      0x1f\n      add\n      0x20\n      dup1\n      swap2\n      div\n      mul\n      0x20\n      add\n      mload(0x40)\n      swap1\n      dup2\n      add\n      0x40\n      mstore\n      dup1\n      swap3\n      swap2\n      swap1\n      dup2\n      dup2\n      mstore\n      0x20\n      add\n      dup3\n      dup1\n      sload\n      tag_98\n      swap1\n      tag_49\n      jump\t// in\n    tag_98:\n      dup1\n      iszero\n      tag_99\n      jumpi\n      dup1\n      0x1f\n      lt\n      tag_100\n      jumpi\n      0x0100\n      dup1\n      dup4\n      sload\n      div\n      mul\n      dup4\n      mstore\n      swap2\n      0x20\n      add\n      swap2\n      jump(tag_99)\n    tag_100:\n      dup3\n      add\n      swap2\n      swap1\n      0x00\n      mstore\n      keccak256(0x00, 0x20)\n      swap1\n    tag_101:\n      dup2\n      sload\n      dup2\n      mstore\n      swap1\n      0x01\n      add\n      swap1\n      0x20\n      add\n      dup1\n      dup4\n      gt\n      tag_101\n      jumpi\n      dup3\n      swap1\n      sub\n      0x1f\n      and\n      dup3\n      add\n      swap2\n    tag_99:\n      pop\n      pop\n      pop\n      pop\n      pop\n      dup2\n      mstore\n      0x20\n      add\n      0x03\n      dup3\n      add\n      0x00\n      swap1\n      sload\n      swap1\n      0x0100\n      exp\n      swap1\n      div\n      0xff\n      and\n      iszero\n      iszero\n      iszero\n      iszero\n      dup2\n      mstore\n      pop\n      pop\n      swap1\n      pop\n        /* \"contracts/test.sol\":1106:1113  product */\n      dup1\n        /* \"contracts/test.sol\":1106:1125  product.isAuthentic */\n      0x60\n      add\n      mload\n        /* \"contracts/test.sol\":1102:1266  if (product.isAuthentic) {... */\n      iszero\n      tag_102\n      jumpi\n        /* \"contracts/test.sol\":1150:1154  true */\n      0x01\n        /* \"contracts/test.sol\":1142:1179  return (true, \"Product is authentic\") */\n      mload(0x40)\n      dup1\n      0x40\n      add\n      0x40\n      mstore\n      dup1\n      0x14\n      dup2\n      mstore\n      0x20\n      add\n      0x50726f647563742069732061757468656e746963000000000000000000000000\n      dup2\n      mstore\n      pop\n      swap3\n      pop\n      swap3\n      pop\n      pop\n      jump(tag_85)\n        /* \"contracts/test.sol\":1102:1266  if (product.isAuthentic) {... */\n    tag_102:\n        /* \"contracts/test.sol\":1220:1225  false */\n      0x00\n        /* \"contracts/test.sol\":1212:1254  return (false, \"Product is not authentic\") */\n      mload(0x40)\n      dup1\n      0x40\n      add\n      0x40\n      mstore\n      dup1\n      0x18\n      dup2\n      mstore\n      0x20\n      add\n      0x50726f64756374206973206e6f742061757468656e7469630000000000000000\n      dup2\n      mstore\n      pop\n      swap3\n      pop\n      swap3\n      pop\n      pop\n        /* \"contracts/test.sol\":948:1273  function verifyProduct(string memory _barcode) public view returns (bool, string memory) {... */\n    tag_85:\n      swap2\n      pop\n      swap2\n      jump\t// out\n        /* \"contracts/test.sol\":1483:1585  function getFakeReportsCount() public view returns (uint) {... */\n    tag_35:\n        /* \"contracts/test.sol\":1535:1539  uint */\n      0x00\n        /* \"contracts/test.sol\":1559:1570  fakeReports */\n      0x02\n        /* \"contracts/test.sol\":1559:1577  fakeReports.length */\n      dup1\n      sload\n      swap1\n      pop\n        /* \"contracts/test.sol\":1552:1577  return fakeReports.length */\n      swap1\n      pop\n        /* \"contracts/test.sol\":1483:1585  function getFakeReportsCount() public view returns (uint) {... */\n      swap1\n      jump\t// out\n        /* \"contracts/test.sol\":1593:1894  function getFakeReport(uint index) public view returns (string memory, string memory, string memory) {... */\n    tag_41:\n        /* \"contracts/test.sol\":1649:1662  string memory */\n      0x60\n        /* \"contracts/test.sol\":1664:1677  string memory */\n      dup1\n        /* \"contracts/test.sol\":1679:1692  string memory */\n      0x60\n        /* \"contracts/test.sol\":1721:1732  fakeReports */\n      0x02\n        /* \"contracts/test.sol\":1721:1739  fakeReports.length */\n      dup1\n      sload\n      swap1\n      pop\n        /* \"contracts/test.sol\":1713:1718  index */\n      dup5\n        /* \"contracts/test.sol\":1713:1739  index < fakeReports.length */\n      lt\n        /* \"contracts/test.sol\":1705:1757  require(index < fakeReports.length, \"Invalid index\") */\n      tag_106\n      jumpi\n      mload(0x40)\n      0x08c379a000000000000000000000000000000000000000000000000000000000\n      dup2\n      mstore\n      0x04\n      add\n      tag_107\n      swap1\n      tag_108\n      jump\t// in\n    tag_107:\n      mload(0x40)\n      dup1\n      swap2\n      sub\n      swap1\n      revert\n    tag_106:\n        /* \"contracts/test.sol\":1768:1788  Report memory report */\n      0x00\n        /* \"contracts/test.sol\":1791:1802  fakeReports */\n      0x02\n        /* \"contracts/test.sol\":1803:1808  index */\n      dup6\n        /* \"contracts/test.sol\":1791:1809  fakeReports[index] */\n      dup2\n      sload\n      dup2\n      lt\n      tag_109\n      jumpi\n      tag_110\n      tag_111\n      jump\t// in\n    tag_110:\n    tag_109:\n      swap1\n      0x00\n      mstore\n      keccak256(0x00, 0x20)\n      swap1\n      0x03\n      mul\n      add\n        /* \"contracts/test.sol\":1768:1809  Report memory report = fakeReports[index] */\n      mload(0x40)\n      dup1\n      0x60\n      add\n      0x40\n      mstore\n      swap1\n      dup2\n      0x00\n      dup3\n      add\n      dup1\n      sload\n      tag_113\n      swap1\n      tag_49\n      jump\t// in\n    tag_113:\n      dup1\n      0x1f\n      add\n      0x20\n      dup1\n      swap2\n      div\n      mul\n      0x20\n      add\n      mload(0x40)\n      swap1\n      dup2\n      add\n      0x40\n      mstore\n      dup1\n      swap3\n      swap2\n      swap1\n      dup2\n      dup2\n      mstore\n      0x20\n      add\n      dup3\n      dup1\n      sload\n      tag_114\n      swap1\n      tag_49\n      jump\t// in\n    tag_114:\n      dup1\n      iszero\n      tag_115\n      jumpi\n      dup1\n      0x1f\n      lt\n      tag_116\n      jumpi\n      0x0100\n      dup1\n      dup4\n      sload\n      div\n      mul\n      dup4\n      mstore\n      swap2\n      0x20\n      add\n      swap2\n      jump(tag_115)\n    tag_116:\n      dup3\n      add\n      swap2\n      swap1\n      0x00\n      mstore\n      keccak256(0x00, 0x20)\n      swap1\n    tag_117:\n      dup2\n      sload\n      dup2\n      mstore\n      swap1\n      0x01\n      add\n      swap1\n      0x20\n      add\n      dup1\n      dup4\n      gt\n      tag_117\n      jumpi\n      dup3\n      swap1\n      sub\n      0x1f\n      and\n      dup3\n      add\n      swap2\n    tag_115:\n      pop\n      pop\n      pop\n      pop\n      pop\n      dup2\n      mstore\n      0x20\n      add\n      0x01\n      dup3\n      add\n      dup1\n      sload\n      tag_118\n      swap1\n      tag_49\n      jump\t// in\n    tag_118:\n      dup1\n      0x1f\n      add\n      0x20\n      dup1\n      swap2\n      div\n      mul\n      0x20\n      add\n      mload(0x40)\n      swap1\n      dup2\n      add\n      0x40\n      mstore\n      dup1\n      swap3\n      swap2\n      swap1\n      dup2\n      dup2\n      mstore\n      0x20\n      add\n      dup3\n      dup1\n      sload\n      tag_119\n      swap1\n      tag_49\n      jump\t// in\n    tag_119:\n      dup1\n      iszero\n      tag_120\n      jumpi\n      dup1\n      0x1f\n      lt\n      tag_121\n      jumpi\n      0x0100\n      dup1\n      dup4\n      sload\n      div\n      mul\n      dup4\n      mstore\n      swap2\n      0x20\n      add\n      swap2\n      jump(tag_120)\n    tag_121:\n      dup3\n      add\n      swap2\n      swap1\n      0x00\n      mstore\n      keccak256(0x00, 0x20)\n      swap1\n    tag_122:\n      dup2\n      sload\n      dup2\n      mstore\n      swap1\n      0x01\n      add\n      swap1\n      0x20\n      add\n      dup1\n      dup4\n      gt\n      tag_122\n      jumpi\n      dup3\n      swap1\n      sub\n      0x1f\n      and\n      dup3\n      add\n      swap2\n    tag_120:\n      pop\n      pop\n      pop\n      pop\n      pop\n      dup2\n      mstore\n      0x20\n      add\n      0x02\n      dup3\n      add\n      dup1\n      sload\n      tag_123\n      swap1\n      tag_49\n      jump\t// in\n    tag_123:\n      dup1\n      0x1f\n      add\n      0x20\n      dup1\n      swap2\n      div\n      mul\n      0x20\n      add\n      mload(0x40)\n      swap1\n      dup2\n      add\n      0x40\n      mstore\n      dup1\n      swap3\n      swap2\n      swap1\n      dup2\n      dup2\n      mstore\n      0x20\n      add\n      dup3\n      dup1\n      sload\n      tag_124\n      swap1\n      tag_49\n      jump\t// in\n    tag_124:\n      dup1\n      iszero\n      tag_125\n      jumpi\n      dup1\n      0x1f\n      lt\n      tag_126\n      jumpi\n      0x0100\n      dup1\n      dup4\n      sload\n      div\n      mul\n      dup4\n      mstore\n      swap2\n      0x20\n      add\n      swap2\n      jump(tag_125)\n    tag_126:\n      dup3\n      add\n      swap2\n      swap1\n      0x00\n      mstore\n      keccak256(0x00, 0x20)\n      swap1\n    tag_127:\n      dup2\n      sload\n      dup2\n      mstore\n      swap1\n      0x01\n      add\n      swap1\n      0x20\n      add\n      dup1\n      dup4\n      gt\n      tag_127\n      jumpi\n      dup3\n      swap1\n      sub\n      0x1f\n      and\n      dup3\n      add\n      swap2\n    tag_125:\n      pop\n      pop\n      pop\n      pop\n      pop\n      dup2\n      mstore\n      pop\n      pop\n      swap1\n      pop\n        /* \"contracts/test.sol\":1828:1834  report */\n      dup1\n        /* \"contracts/test.sol\":1828:1844  report.productId */\n      0x00\n      add\n      mload\n        /* \"contracts/test.sol\":1846:1852  report */\n      dup2\n        /* \"contracts/test.sol\":1846:1863  report.sellerName */\n      0x20\n      add\n      mload\n        /* \"contracts/test.sol\":1865:1871  report */\n      dup3\n        /* \"contracts/test.sol\":1865:1885  report.sellerDetails */\n      0x40\n      add\n      mload\n        /* \"contracts/test.sol\":1820:1886  return (report.productId, report.sellerName, report.sellerDetails) */\n      swap4\n      pop\n      swap4\n      pop\n      swap4\n      pop\n      pop\n        /* \"contracts/test.sol\":1593:1894  function getFakeReport(uint index) public view returns (string memory, string memory, string memory) {... */\n      swap2\n      swap4\n      swap1\n      swap3\n      pop\n      jump\t// out\n        /* \"contracts/test.sol\":442:469  Report[] public fakeReports */\n    tag_46:\n      0x02\n      dup2\n      dup2\n      sload\n      dup2\n      lt\n      tag_128\n      jumpi\n      0x00\n      dup1\n      revert\n    tag_128:\n      swap1\n      0x00\n      mstore\n      keccak256(0x00, 0x20)\n      swap1\n      0x03\n      mul\n      add\n      0x00\n      swap2\n      pop\n      swap1\n      pop\n      dup1\n      0x00\n      add\n      dup1\n      sload\n      tag_130\n      swap1\n      tag_49\n      jump\t// in\n    tag_130:\n      dup1\n      0x1f\n      add\n      0x20\n      dup1\n      swap2\n      div\n      mul\n      0x20\n      add\n      mload(0x40)\n      swap1\n      dup2\n      add\n      0x40\n      mstore\n      dup1\n      swap3\n      swap2\n      swap1\n      dup2\n      dup2\n      mstore\n      0x20\n      add\n      dup3\n      dup1\n      sload\n      tag_131\n      swap1\n      tag_49\n      jump\t// in\n    tag_131:\n      dup1\n      iszero\n      tag_132\n      jumpi\n      dup1\n      0x1f\n      lt\n      tag_133\n      jumpi\n      0x0100\n      dup1\n      dup4\n      sload\n      div\n      mul\n      dup4\n      mstore\n      swap2\n      0x20\n      add\n      swap2\n      jump(tag_132)\n    tag_133:\n      dup3\n      add\n      swap2\n      swap1\n      0x00\n      mstore\n      keccak256(0x00, 0x20)\n      swap1\n    tag_134:\n      dup2\n      sload\n      dup2\n      mstore\n      swap1\n      0x01\n      add\n      swap1\n      0x20\n      add\n      dup1\n      dup4\n      gt\n      tag_134\n      jumpi\n      dup3\n      swap1\n      sub\n      0x1f\n      and\n      dup3\n      add\n      swap2\n    tag_132:\n      pop\n      pop\n      pop\n      pop\n      pop\n      swap1\n      dup1\n      0x01\n      add\n      dup1\n      sload\n      tag_135\n      swap1\n      tag_49\n      jump\t// in\n    tag_135:\n      dup1\n      0x1f\n      add\n      0x20\n      dup1\n      swap2\n      div\n      mul\n      0x20\n      add\n      mload(0x40)\n      swap1\n      dup2\n      add\n      0x40\n      mstore\n      dup1\n      swap3\n      swap2\n      swap1\n      dup2\n      dup2\n      mstore\n      0x20\n      add\n      dup3\n      dup1\n      sload\n      tag_136\n      swap1\n      tag_49\n      jump\t// in\n    tag_136:\n      dup1\n      iszero\n      tag_137\n      jumpi\n      dup1\n      0x1f\n      lt\n      tag_138\n      jumpi\n      0x0100\n      dup1\n      dup4\n      sload\n      div\n      mul\n      dup4\n      mstore\n      swap2\n      0x20\n      add\n      swap2\n      jump(tag_137)\n    tag_138:\n      dup3\n      add\n      swap2\n      swap1\n      0x00\n      mstore\n      keccak256(0x00, 0x20)\n      swap1\n    tag_139:\n      dup2\n      sload\n      dup2\n      mstore\n      swap1\n      0x01\n      add\n      swap1\n      0x20\n      add\n      dup1\n      dup4\n      gt\n      tag_139\n      jumpi\n      dup3\n      swap1\n      sub\n      0x1f\n      and\n      dup3\n      add\n      swap2\n    tag_137:\n      pop\n      pop\n      pop\n      pop\n      pop\n      swap1\n      dup1\n      0x02\n      add\n      dup1\n      sload\n      tag_140\n      swap1\n      tag_49\n      jump\t// in\n    tag_140:\n      dup1\n      0x1f\n      add\n      0x20\n      dup1\n      swap2\n      div\n      mul\n      0x20\n      add\n      mload(0x40)\n      swap1\n      dup2\n      add\n      0x40\n      mstore\n      dup1\n      swap3\n      swap2\n      swap1\n      dup2\n      dup2\n      mstore\n      0x20\n      add\n      dup3\n      dup1\n      sload\n      tag_141\n      swap1\n      tag_49\n      jump\t// in\n    tag_141:\n      dup1\n      iszero\n      tag_142\n      jumpi\n      dup1\n      0x1f\n      lt\n      tag_143\n      jumpi\n      0x0100\n      dup1\n      dup4\n      sload\n      div\n      mul\n      dup4\n      mstore\n      swap2\n      0x20\n      add\n      swap2\n      jump(tag_142)\n    tag_143:\n      dup3\n      add\n      swap2\n      swap1\n      0x00\n      mstore\n      keccak256(0x00, 0x20)\n      swap1\n    tag_144:\n      dup2\n      sload\n      dup2\n      mstore\n      swap1\n      0x01\n      add\n      swap1\n      0x20\n      add\n      dup1\n      dup4\n      gt\n      tag_144\n      jumpi\n      dup3\n      swap1\n      sub\n      0x1f\n      and\n      dup3\n      add\n      swap2\n    tag_142:\n      pop\n      pop\n      pop\n      pop\n      pop\n      swap1\n      pop\n      dup4\n      jump\t// out\n        /* \"#utility.yul\":7:82   */\n    tag_145:\n        /* \"#utility.yul\":40:46   */\n      0x00\n        /* \"#utility.yul\":73:75   */\n      0x40\n        /* \"#utility.yul\":67:76   */\n      mload\n        /* \"#utility.yul\":57:76   */\n      swap1\n      pop\n        /* \"#utility.yul\":7:82   */\n      swap1\n      jump\t// out\n        /* \"#utility.yul\":88:205   */\n    tag_146:\n        /* \"#utility.yul\":197:198   */\n      0x00\n        /* \"#utility.yul\":194:195   */\n      dup1\n        /* \"#utility.yul\":187:199   */\n      revert\n        /* \"#utility.yul\":211:328   */\n    tag_147:\n        /* \"#utility.yul\":320:321   */\n      0x00\n        /* \"#utility.yul\":317:318   */\n      dup1\n        /* \"#utility.yul\":310:322   */\n      revert\n        /* \"#utility.yul\":334:451   */\n    tag_148:\n        /* \"#utility.yul\":443:444   */\n      0x00\n        /* \"#utility.yul\":440:441   */\n      dup1\n        /* \"#utility.yul\":433:445   */\n      revert\n        /* \"#utility.yul\":457:574   */\n    tag_149:\n        /* \"#utility.yul\":566:567   */\n      0x00\n        /* \"#utility.yul\":563:564   */\n      dup1\n        /* \"#utility.yul\":556:568   */\n      revert\n        /* \"#utility.yul\":580:682   */\n    tag_150:\n        /* \"#utility.yul\":621:627   */\n      0x00\n        /* \"#utility.yul\":672:674   */\n      0x1f\n        /* \"#utility.yul\":668:675   */\n      not\n        /* \"#utility.yul\":663:665   */\n      0x1f\n        /* \"#utility.yul\":656:661   */\n      dup4\n        /* \"#utility.yul\":652:666   */\n      add\n        /* \"#utility.yul\":648:676   */\n      and\n        /* \"#utility.yul\":638:676   */\n      swap1\n      pop\n        /* \"#utility.yul\":580:682   */\n      swap2\n      swap1\n      pop\n      jump\t// out\n        /* \"#utility.yul\":688:868   */\n    tag_151:\n        /* \"#utility.yul\":736:813   */\n      0x4e487b7100000000000000000000000000000000000000000000000000000000\n        /* \"#utility.yul\":733:734   */\n      0x00\n        /* \"#utility.yul\":726:814   */\n      mstore\n        /* \"#utility.yul\":833:837   */\n      0x41\n        /* \"#utility.yul\":830:831   */\n      0x04\n        /* \"#utility.yul\":823:838   */\n      mstore\n        /* \"#utility.yul\":857:861   */\n      0x24\n        /* \"#utility.yul\":854:855   */\n      0x00\n        /* \"#utility.yul\":847:862   */\n      revert\n        /* \"#utility.yul\":874:1155   */\n    tag_152:\n        /* \"#utility.yul\":957:984   */\n      tag_204\n        /* \"#utility.yul\":979:983   */\n      dup3\n        /* \"#utility.yul\":957:984   */\n      tag_150\n      jump\t// in\n    tag_204:\n        /* \"#utility.yul\":949:955   */\n      dup2\n        /* \"#utility.yul\":945:985   */\n      add\n        /* \"#utility.yul\":1087:1093   */\n      dup2\n        /* \"#utility.yul\":1075:1085   */\n      dup2\n        /* \"#utility.yul\":1072:1094   */\n      lt\n        /* \"#utility.yul\":1051:1069   */\n      0xffffffffffffffff\n        /* \"#utility.yul\":1039:1049   */\n      dup3\n        /* \"#utility.yul\":1036:1070   */\n      gt\n        /* \"#utility.yul\":1033:1095   */\n      or\n        /* \"#utility.yul\":1030:1118   */\n      iszero\n      tag_205\n      jumpi\n        /* \"#utility.yul\":1098:1116   */\n      tag_206\n      tag_151\n      jump\t// in\n    tag_206:\n        /* \"#utility.yul\":1030:1118   */\n    tag_205:\n        /* \"#utility.yul\":1138:1148   */\n      dup1\n        /* \"#utility.yul\":1134:1136   */\n      0x40\n        /* \"#utility.yul\":1127:1149   */\n      mstore\n        /* \"#utility.yul\":917:1155   */\n      pop\n        /* \"#utility.yul\":874:1155   */\n      pop\n      pop\n      jump\t// out\n        /* \"#utility.yul\":1161:1290   */\n    tag_153:\n        /* \"#utility.yul\":1195:1201   */\n      0x00\n        /* \"#utility.yul\":1222:1242   */\n      tag_208\n      tag_145\n      jump\t// in\n    tag_208:\n        /* \"#utility.yul\":1212:1242   */\n      swap1\n      pop\n        /* \"#utility.yul\":1251:1284   */\n      tag_209\n        /* \"#utility.yul\":1279:1283   */\n      dup3\n        /* \"#utility.yul\":1271:1277   */\n      dup3\n        /* \"#utility.yul\":1251:1284   */\n      tag_152\n      jump\t// in\n    tag_209:\n        /* \"#utility.yul\":1161:1290   */\n      swap2\n      swap1\n      pop\n      jump\t// out\n        /* \"#utility.yul\":1296:1604   */\n    tag_154:\n        /* \"#utility.yul\":1358:1362   */\n      0x00\n        /* \"#utility.yul\":1448:1466   */\n      0xffffffffffffffff\n        /* \"#utility.yul\":1440:1446   */\n      dup3\n        /* \"#utility.yul\":1437:1467   */\n      gt\n        /* \"#utility.yul\":1434:1490   */\n      iszero\n      tag_211\n      jumpi\n        /* \"#utility.yul\":1470:1488   */\n      tag_212\n      tag_151\n      jump\t// in\n    tag_212:\n        /* \"#utility.yul\":1434:1490   */\n    tag_211:\n        /* \"#utility.yul\":1508:1537   */\n      tag_213\n        /* \"#utility.yul\":1530:1536   */\n      dup3\n        /* \"#utility.yul\":1508:1537   */\n      tag_150\n      jump\t// in\n    tag_213:\n        /* \"#utility.yul\":1500:1537   */\n      swap1\n      pop\n        /* \"#utility.yul\":1592:1596   */\n      0x20\n        /* \"#utility.yul\":1586:1590   */\n      dup2\n        /* \"#utility.yul\":1582:1597   */\n      add\n        /* \"#utility.yul\":1574:1597   */\n      swap1\n      pop\n        /* \"#utility.yul\":1296:1604   */\n      swap2\n      swap1\n      pop\n      jump\t// out\n        /* \"#utility.yul\":1610:1758   */\n    tag_155:\n        /* \"#utility.yul\":1708:1714   */\n      dup3\n        /* \"#utility.yul\":1703:1706   */\n      dup2\n        /* \"#utility.yul\":1698:1701   */\n      dup4\n        /* \"#utility.yul\":1685:1715   */\n      calldatacopy\n        /* \"#utility.yul\":1749:1750   */\n      0x00\n        /* \"#utility.yul\":1740:1746   */\n      dup4\n        /* \"#utility.yul\":1735:1738   */\n      dup4\n        /* \"#utility.yul\":1731:1747   */\n      add\n        /* \"#utility.yul\":1724:1751   */\n      mstore\n        /* \"#utility.yul\":1610:1758   */\n      pop\n      pop\n      pop\n      jump\t// out\n        /* \"#utility.yul\":1764:2189   */\n    tag_156:\n        /* \"#utility.yul\":1842:1847   */\n      0x00\n        /* \"#utility.yul\":1867:1933   */\n      tag_216\n        /* \"#utility.yul\":1883:1932   */\n      tag_217\n        /* \"#utility.yul\":1925:1931   */\n      dup5\n        /* \"#utility.yul\":1883:1932   */\n      tag_154\n      jump\t// in\n    tag_217:\n        /* \"#utility.yul\":1867:1933   */\n      tag_153\n      jump\t// in\n    tag_216:\n        /* \"#utility.yul\":1858:1933   */\n      swap1\n      pop\n        /* \"#utility.yul\":1956:1962   */\n      dup3\n        /* \"#utility.yul\":1949:1954   */\n      dup2\n        /* \"#utility.yul\":1942:1963   */\n      mstore\n        /* \"#utility.yul\":1994:1998   */\n      0x20\n        /* \"#utility.yul\":1987:1992   */\n      dup2\n        /* \"#utility.yul\":1983:1999   */\n      add\n        /* \"#utility.yul\":2032:2035   */\n      dup5\n        /* \"#utility.yul\":2023:2029   */\n      dup5\n        /* \"#utility.yul\":2018:2021   */\n      dup5\n        /* \"#utility.yul\":2014:2030   */\n      add\n        /* \"#utility.yul\":2011:2036   */\n      gt\n        /* \"#utility.yul\":2008:2120   */\n      iszero\n      tag_218\n      jumpi\n        /* \"#utility.yul\":2039:2118   */\n      tag_219\n      tag_149\n      jump\t// in\n    tag_219:\n        /* \"#utility.yul\":2008:2120   */\n    tag_218:\n        /* \"#utility.yul\":2129:2183   */\n      tag_220\n        /* \"#utility.yul\":2176:2182   */\n      dup5\n        /* \"#utility.yul\":2171:2174   */\n      dup3\n        /* \"#utility.yul\":2166:2169   */\n      dup6\n        /* \"#utility.yul\":2129:2183   */\n      tag_155\n      jump\t// in\n    tag_220:\n        /* \"#utility.yul\":1848:2189   */\n      pop\n        /* \"#utility.yul\":1764:2189   */\n      swap4\n      swap3\n      pop\n      pop\n      pop\n      jump\t// out\n        /* \"#utility.yul\":2209:2549   */\n    tag_157:\n        /* \"#utility.yul\":2265:2270   */\n      0x00\n        /* \"#utility.yul\":2314:2317   */\n      dup3\n        /* \"#utility.yul\":2307:2311   */\n      0x1f\n        /* \"#utility.yul\":2299:2305   */\n      dup4\n        /* \"#utility.yul\":2295:2312   */\n      add\n        /* \"#utility.yul\":2291:2318   */\n      slt\n        /* \"#utility.yul\":2281:2403   */\n      tag_222\n      jumpi\n        /* \"#utility.yul\":2322:2401   */\n      tag_223\n      tag_148\n      jump\t// in\n    tag_223:\n        /* \"#utility.yul\":2281:2403   */\n    tag_222:\n        /* \"#utility.yul\":2439:2445   */\n      dup2\n        /* \"#utility.yul\":2426:2446   */\n      calldataload\n        /* \"#utility.yul\":2464:2543   */\n      tag_224\n        /* \"#utility.yul\":2539:2542   */\n      dup5\n        /* \"#utility.yul\":2531:2537   */\n      dup3\n        /* \"#utility.yul\":2524:2528   */\n      0x20\n        /* \"#utility.yul\":2516:2522   */\n      dup7\n        /* \"#utility.yul\":2512:2529   */\n      add\n        /* \"#utility.yul\":2464:2543   */\n      tag_156\n      jump\t// in\n    tag_224:\n        /* \"#utility.yul\":2455:2543   */\n      swap2\n      pop\n        /* \"#utility.yul\":2271:2549   */\n      pop\n        /* \"#utility.yul\":2209:2549   */\n      swap3\n      swap2\n      pop\n      pop\n      jump\t// out\n        /* \"#utility.yul\":2555:3064   */\n    tag_14:\n        /* \"#utility.yul\":2624:2630   */\n      0x00\n        /* \"#utility.yul\":2673:2675   */\n      0x20\n        /* \"#utility.yul\":2661:2670   */\n      dup3\n        /* \"#utility.yul\":2652:2659   */\n      dup5\n        /* \"#utility.yul\":2648:2671   */\n      sub\n        /* \"#utility.yul\":2644:2676   */\n      slt\n        /* \"#utility.yul\":2641:2760   */\n      iszero\n      tag_226\n      jumpi\n        /* \"#utility.yul\":2679:2758   */\n      tag_227\n      tag_146\n      jump\t// in\n    tag_227:\n        /* \"#utility.yul\":2641:2760   */\n    tag_226:\n        /* \"#utility.yul\":2827:2828   */\n      0x00\n        /* \"#utility.yul\":2816:2825   */\n      dup3\n        /* \"#utility.yul\":2812:2829   */\n      add\n        /* \"#utility.yul\":2799:2830   */\n      calldataload\n        /* \"#utility.yul\":2857:2875   */\n      0xffffffffffffffff\n        /* \"#utility.yul\":2849:2855   */\n      dup2\n        /* \"#utility.yul\":2846:2876   */\n      gt\n        /* \"#utility.yul\":2843:2960   */\n      iszero\n      tag_228\n      jumpi\n        /* \"#utility.yul\":2879:2958   */\n      tag_229\n      tag_147\n      jump\t// in\n    tag_229:\n        /* \"#utility.yul\":2843:2960   */\n    tag_228:\n        /* \"#utility.yul\":2984:3047   */\n      tag_230\n        /* \"#utility.yul\":3039:3046   */\n      dup5\n        /* \"#utility.yul\":3030:3036   */\n      dup3\n        /* \"#utility.yul\":3019:3028   */\n      dup6\n        /* \"#utility.yul\":3015:3037   */\n      add\n        /* \"#utility.yul\":2984:3047   */\n      tag_157\n      jump\t// in\n    tag_230:\n        /* \"#utility.yul\":2974:3047   */\n      swap2\n      pop\n        /* \"#utility.yul\":2770:3057   */\n      pop\n        /* \"#utility.yul\":2555:3064   */\n      swap3\n      swap2\n      pop\n      pop\n      jump\t// out\n        /* \"#utility.yul\":3070:3169   */\n    tag_158:\n        /* \"#utility.yul\":3122:3128   */\n      0x00\n        /* \"#utility.yul\":3156:3161   */\n      dup2\n        /* \"#utility.yul\":3150:3162   */\n      mload\n        /* \"#utility.yul\":3140:3162   */\n      swap1\n      pop\n        /* \"#utility.yul\":3070:3169   */\n      swap2\n      swap1\n      pop\n      jump\t// out\n        /* \"#utility.yul\":3175:3344   */\n    tag_159:\n        /* \"#utility.yul\":3259:3270   */\n      0x00\n        /* \"#utility.yul\":3293:3299   */\n      dup3\n        /* \"#utility.yul\":3288:3291   */\n      dup3\n        /* \"#utility.yul\":3281:3300   */\n      mstore\n        /* \"#utility.yul\":3333:3337   */\n      0x20\n        /* \"#utility.yul\":3328:3331   */\n      dup3\n        /* \"#utility.yul\":3324:3338   */\n      add\n        /* \"#utility.yul\":3309:3338   */\n      swap1\n      pop\n        /* \"#utility.yul\":3175:3344   */\n      swap3\n      swap2\n      pop\n      pop\n      jump\t// out\n        /* \"#utility.yul\":3350:3489   */\n    tag_160:\n        /* \"#utility.yul\":3439:3445   */\n      dup3\n        /* \"#utility.yul\":3434:3437   */\n      dup2\n        /* \"#utility.yul\":3429:3432   */\n      dup4\n        /* \"#utility.yul\":3423:3446   */\n      mcopy\n        /* \"#utility.yul\":3480:3481   */\n      0x00\n        /* \"#utility.yul\":3471:3477   */\n      dup4\n        /* \"#utility.yul\":3466:3469   */\n      dup4\n        /* \"#utility.yul\":3462:3478   */\n      add\n        /* \"#utility.yul\":3455:3482   */\n      mstore\n        /* \"#utility.yul\":3350:3489   */\n      pop\n      pop\n      pop\n      jump\t// out\n        /* \"#utility.yul\":3495:3872   */\n    tag_161:\n        /* \"#utility.yul\":3583:3586   */\n      0x00\n        /* \"#utility.yul\":3611:3650   */\n      tag_235\n        /* \"#utility.yul\":3644:3649   */\n      dup3\n        /* \"#utility.yul\":3611:3650   */\n      tag_158\n      jump\t// in\n    tag_235:\n        /* \"#utility.yul\":3666:3737   */\n      tag_236\n        /* \"#utility.yul\":3730:3736   */\n      dup2\n        /* \"#utility.yul\":3725:3728   */\n      dup6\n        /* \"#utility.yul\":3666:3737   */\n      tag_159\n      jump\t// in\n    tag_236:\n        /* \"#utility.yul\":3659:3737   */\n      swap4\n      pop\n        /* \"#utility.yul\":3746:3811   */\n      tag_237\n        /* \"#utility.yul\":3804:3810   */\n      dup2\n        /* \"#utility.yul\":3799:3802   */\n      dup6\n        /* \"#utility.yul\":3792:3796   */\n      0x20\n        /* \"#utility.yul\":3785:3790   */\n      dup7\n        /* \"#utility.yul\":3781:3797   */\n      add\n        /* \"#utility.yul\":3746:3811   */\n      tag_160\n      jump\t// in\n    tag_237:\n        /* \"#utility.yul\":3836:3865   */\n      tag_238\n        /* \"#utility.yul\":3858:3864   */\n      dup2\n        /* \"#utility.yul\":3836:3865   */\n      tag_150\n      jump\t// in\n    tag_238:\n        /* \"#utility.yul\":3831:3834   */\n      dup5\n        /* \"#utility.yul\":3827:3866   */\n      add\n        /* \"#utility.yul\":3820:3866   */\n      swap2\n      pop\n        /* \"#utility.yul\":3587:3872   */\n      pop\n        /* \"#utility.yul\":3495:3872   */\n      swap3\n      swap2\n      pop\n      pop\n      jump\t// out\n        /* \"#utility.yul\":3878:3968   */\n    tag_162:\n        /* \"#utility.yul\":3912:3919   */\n      0x00\n        /* \"#utility.yul\":3955:3960   */\n      dup2\n        /* \"#utility.yul\":3948:3961   */\n      iszero\n        /* \"#utility.yul\":3941:3962   */\n      iszero\n        /* \"#utility.yul\":3930:3962   */\n      swap1\n      pop\n        /* \"#utility.yul\":3878:3968   */\n      swap2\n      swap1\n      pop\n      jump\t// out\n        /* \"#utility.yul\":3974:4083   */\n    tag_163:\n        /* \"#utility.yul\":4055:4076   */\n      tag_241\n        /* \"#utility.yul\":4070:4075   */\n      dup2\n        /* \"#utility.yul\":4055:4076   */\n      tag_162\n      jump\t// in\n    tag_241:\n        /* \"#utility.yul\":4050:4053   */\n      dup3\n        /* \"#utility.yul\":4043:4077   */\n      mstore\n        /* \"#utility.yul\":3974:4083   */\n      pop\n      pop\n      jump\t// out\n        /* \"#utility.yul\":4089:4903   */\n    tag_17:\n        /* \"#utility.yul\":4320:4324   */\n      0x00\n        /* \"#utility.yul\":4358:4361   */\n      0x80\n        /* \"#utility.yul\":4347:4356   */\n      dup3\n        /* \"#utility.yul\":4343:4362   */\n      add\n        /* \"#utility.yul\":4335:4362   */\n      swap1\n      pop\n        /* \"#utility.yul\":4408:4417   */\n      dup2\n        /* \"#utility.yul\":4402:4406   */\n      dup2\n        /* \"#utility.yul\":4398:4418   */\n      sub\n        /* \"#utility.yul\":4394:4395   */\n      0x00\n        /* \"#utility.yul\":4383:4392   */\n      dup4\n        /* \"#utility.yul\":4379:4396   */\n      add\n        /* \"#utility.yul\":4372:4419   */\n      mstore\n        /* \"#utility.yul\":4436:4514   */\n      tag_243\n        /* \"#utility.yul\":4509:4513   */\n      dup2\n        /* \"#utility.yul\":4500:4506   */\n      dup8\n        /* \"#utility.yul\":4436:4514   */\n      tag_161\n      jump\t// in\n    tag_243:\n        /* \"#utility.yul\":4428:4514   */\n      swap1\n      pop\n        /* \"#utility.yul\":4561:4570   */\n      dup2\n        /* \"#utility.yul\":4555:4559   */\n      dup2\n        /* \"#utility.yul\":4551:4571   */\n      sub\n        /* \"#utility.yul\":4546:4548   */\n      0x20\n        /* \"#utility.yul\":4535:4544   */\n      dup4\n        /* \"#utility.yul\":4531:4549   */\n      add\n        /* \"#utility.yul\":4524:4572   */\n      mstore\n        /* \"#utility.yul\":4589:4667   */\n      tag_244\n        /* \"#utility.yul\":4662:4666   */\n      dup2\n        /* \"#utility.yul\":4653:4659   */\n      dup7\n        /* \"#utility.yul\":4589:4667   */\n      tag_161\n      jump\t// in\n    tag_244:\n        /* \"#utility.yul\":4581:4667   */\n      swap1\n      pop\n        /* \"#utility.yul\":4714:4723   */\n      dup2\n        /* \"#utility.yul\":4708:4712   */\n      dup2\n        /* \"#utility.yul\":4704:4724   */\n      sub\n        /* \"#utility.yul\":4699:4701   */\n      0x40\n        /* \"#utility.yul\":4688:4697   */\n      dup4\n        /* \"#utility.yul\":4684:4702   */\n      add\n        /* \"#utility.yul\":4677:4725   */\n      mstore\n        /* \"#utility.yul\":4742:4820   */\n      tag_245\n        /* \"#utility.yul\":4815:4819   */\n      dup2\n        /* \"#utility.yul\":4806:4812   */\n      dup6\n        /* \"#utility.yul\":4742:4820   */\n      tag_161\n      jump\t// in\n    tag_245:\n        /* \"#utility.yul\":4734:4820   */\n      swap1\n      pop\n        /* \"#utility.yul\":4830:4896   */\n      tag_246\n        /* \"#utility.yul\":4892:4894   */\n      0x60\n        /* \"#utility.yul\":4881:4890   */\n      dup4\n        /* \"#utility.yul\":4877:4895   */\n      add\n        /* \"#utility.yul\":4868:4874   */\n      dup5\n        /* \"#utility.yul\":4830:4896   */\n      tag_163\n      jump\t// in\n    tag_246:\n        /* \"#utility.yul\":4089:4903   */\n      swap6\n      swap5\n      pop\n      pop\n      pop\n      pop\n      pop\n      jump\t// out\n        /* \"#utility.yul\":4909:6068   */\n    tag_20:\n        /* \"#utility.yul\":5016:5022   */\n      0x00\n        /* \"#utility.yul\":5024:5030   */\n      dup1\n        /* \"#utility.yul\":5032:5038   */\n      0x00\n        /* \"#utility.yul\":5081:5083   */\n      0x60\n        /* \"#utility.yul\":5069:5078   */\n      dup5\n        /* \"#utility.yul\":5060:5067   */\n      dup7\n        /* \"#utility.yul\":5056:5079   */\n      sub\n        /* \"#utility.yul\":5052:5084   */\n      slt\n        /* \"#utility.yul\":5049:5168   */\n      iszero\n      tag_248\n      jumpi\n        /* \"#utility.yul\":5087:5166   */\n      tag_249\n      tag_146\n      jump\t// in\n    tag_249:\n        /* \"#utility.yul\":5049:5168   */\n    tag_248:\n        /* \"#utility.yul\":5235:5236   */\n      0x00\n        /* \"#utility.yul\":5224:5233   */\n      dup5\n        /* \"#utility.yul\":5220:5237   */\n      add\n        /* \"#utility.yul\":5207:5238   */\n      calldataload\n        /* \"#utility.yul\":5265:5283   */\n      0xffffffffffffffff\n        /* \"#utility.yul\":5257:5263   */\n      dup2\n        /* \"#utility.yul\":5254:5284   */\n      gt\n        /* \"#utility.yul\":5251:5368   */\n      iszero\n      tag_250\n      jumpi\n        /* \"#utility.yul\":5287:5366   */\n      tag_251\n      tag_147\n      jump\t// in\n    tag_251:\n        /* \"#utility.yul\":5251:5368   */\n    tag_250:\n        /* \"#utility.yul\":5392:5455   */\n      tag_252\n        /* \"#utility.yul\":5447:5454   */\n      dup7\n        /* \"#utility.yul\":5438:5444   */\n      dup3\n        /* \"#utility.yul\":5427:5436   */\n      dup8\n        /* \"#utility.yul\":5423:5445   */\n      add\n        /* \"#utility.yul\":5392:5455   */\n      tag_157\n      jump\t// in\n    tag_252:\n        /* \"#utility.yul\":5382:5455   */\n      swap4\n      pop\n        /* \"#utility.yul\":5178:5465   */\n      pop\n        /* \"#utility.yul\":5532:5534   */\n      0x20\n        /* \"#utility.yul\":5521:5530   */\n      dup5\n        /* \"#utility.yul\":5517:5535   */\n      add\n        /* \"#utility.yul\":5504:5536   */\n      calldataload\n        /* \"#utility.yul\":5563:5581   */\n      0xffffffffffffffff\n        /* \"#utility.yul\":5555:5561   */\n      dup2\n        /* \"#utility.yul\":5552:5582   */\n      gt\n        /* \"#utility.yul\":5549:5666   */\n      iszero\n      tag_253\n      jumpi\n        /* \"#utility.yul\":5585:5664   */\n      tag_254\n      tag_147\n      jump\t// in\n    tag_254:\n        /* \"#utility.yul\":5549:5666   */\n    tag_253:\n        /* \"#utility.yul\":5690:5753   */\n      tag_255\n        /* \"#utility.yul\":5745:5752   */\n      dup7\n        /* \"#utility.yul\":5736:5742   */\n      dup3\n        /* \"#utility.yul\":5725:5734   */\n      dup8\n        /* \"#utility.yul\":5721:5743   */\n      add\n        /* \"#utility.yul\":5690:5753   */\n      tag_157\n      jump\t// in\n    tag_255:\n        /* \"#utility.yul\":5680:5753   */\n      swap3\n      pop\n        /* \"#utility.yul\":5475:5763   */\n      pop\n        /* \"#utility.yul\":5830:5832   */\n      0x40\n        /* \"#utility.yul\":5819:5828   */\n      dup5\n        /* \"#utility.yul\":5815:5833   */\n      add\n        /* \"#utility.yul\":5802:5834   */\n      calldataload\n        /* \"#utility.yul\":5861:5879   */\n      0xffffffffffffffff\n        /* \"#utility.yul\":5853:5859   */\n      dup2\n        /* \"#utility.yul\":5850:5880   */\n      gt\n        /* \"#utility.yul\":5847:5964   */\n      iszero\n      tag_256\n      jumpi\n        /* \"#utility.yul\":5883:5962   */\n      tag_257\n      tag_147\n      jump\t// in\n    tag_257:\n        /* \"#utility.yul\":5847:5964   */\n    tag_256:\n        /* \"#utility.yul\":5988:6051   */\n      tag_258\n        /* \"#utility.yul\":6043:6050   */\n      dup7\n        /* \"#utility.yul\":6034:6040   */\n      dup3\n        /* \"#utility.yul\":6023:6032   */\n      dup8\n        /* \"#utility.yul\":6019:6041   */\n      add\n        /* \"#utility.yul\":5988:6051   */\n      tag_157\n      jump\t// in\n    tag_258:\n        /* \"#utility.yul\":5978:6051   */\n      swap2\n      pop\n        /* \"#utility.yul\":5773:6061   */\n      pop\n        /* \"#utility.yul\":4909:6068   */\n      swap3\n      pop\n      swap3\n      pop\n      swap3\n      jump\t// out\n        /* \"#utility.yul\":6074:6200   */\n    tag_164:\n        /* \"#utility.yul\":6111:6118   */\n      0x00\n        /* \"#utility.yul\":6151:6193   */\n      0xffffffffffffffffffffffffffffffffffffffff\n        /* \"#utility.yul\":6144:6149   */\n      dup3\n        /* \"#utility.yul\":6140:6194   */\n      and\n        /* \"#utility.yul\":6129:6194   */\n      swap1\n      pop\n        /* \"#utility.yul\":6074:6200   */\n      swap2\n      swap1\n      pop\n      jump\t// out\n        /* \"#utility.yul\":6206:6302   */\n    tag_165:\n        /* \"#utility.yul\":6243:6250   */\n      0x00\n        /* \"#utility.yul\":6272:6296   */\n      tag_261\n        /* \"#utility.yul\":6290:6295   */\n      dup3\n        /* \"#utility.yul\":6272:6296   */\n      tag_164\n      jump\t// in\n    tag_261:\n        /* \"#utility.yul\":6261:6296   */\n      swap1\n      pop\n        /* \"#utility.yul\":6206:6302   */\n      swap2\n      swap1\n      pop\n      jump\t// out\n        /* \"#utility.yul\":6308:6426   */\n    tag_166:\n        /* \"#utility.yul\":6395:6419   */\n      tag_263\n        /* \"#utility.yul\":6413:6418   */\n      dup2\n        /* \"#utility.yul\":6395:6419   */\n      tag_165\n      jump\t// in\n    tag_263:\n        /* \"#utility.yul\":6390:6393   */\n      dup3\n        /* \"#utility.yul\":6383:6420   */\n      mstore\n        /* \"#utility.yul\":6308:6426   */\n      pop\n      pop\n      jump\t// out\n        /* \"#utility.yul\":6432:6654   */\n    tag_28:\n        /* \"#utility.yul\":6525:6529   */\n      0x00\n        /* \"#utility.yul\":6563:6565   */\n      0x20\n        /* \"#utility.yul\":6552:6561   */\n      dup3\n        /* \"#utility.yul\":6548:6566   */\n      add\n        /* \"#utility.yul\":6540:6566   */\n      swap1\n      pop\n        /* \"#utility.yul\":6576:6647   */\n      tag_265\n        /* \"#utility.yul\":6644:6645   */\n      0x00\n        /* \"#utility.yul\":6633:6642   */\n      dup4\n        /* \"#utility.yul\":6629:6646   */\n      add\n        /* \"#utility.yul\":6620:6626   */\n      dup5\n        /* \"#utility.yul\":6576:6647   */\n      tag_166\n      jump\t// in\n    tag_265:\n        /* \"#utility.yul\":6432:6654   */\n      swap3\n      swap2\n      pop\n      pop\n      jump\t// out\n        /* \"#utility.yul\":6660:7071   */\n    tag_33:\n        /* \"#utility.yul\":6795:6799   */\n      0x00\n        /* \"#utility.yul\":6833:6835   */\n      0x40\n        /* \"#utility.yul\":6822:6831   */\n      dup3\n        /* \"#utility.yul\":6818:6836   */\n      add\n        /* \"#utility.yul\":6810:6836   */\n      swap1\n      pop\n        /* \"#utility.yul\":6846:6911   */\n      tag_267\n        /* \"#utility.yul\":6908:6909   */\n      0x00\n        /* \"#utility.yul\":6897:6906   */\n      dup4\n        /* \"#utility.yul\":6893:6910   */\n      add\n        /* \"#utility.yul\":6884:6890   */\n      dup6\n        /* \"#utility.yul\":6846:6911   */\n      tag_163\n      jump\t// in\n    tag_267:\n        /* \"#utility.yul\":6958:6967   */\n      dup2\n        /* \"#utility.yul\":6952:6956   */\n      dup2\n        /* \"#utility.yul\":6948:6968   */\n      sub\n        /* \"#utility.yul\":6943:6945   */\n      0x20\n        /* \"#utility.yul\":6932:6941   */\n      dup4\n        /* \"#utility.yul\":6928:6946   */\n      add\n        /* \"#utility.yul\":6921:6969   */\n      mstore\n        /* \"#utility.yul\":6986:7064   */\n      tag_268\n        /* \"#utility.yul\":7059:7063   */\n      dup2\n        /* \"#utility.yul\":7050:7056   */\n      dup5\n        /* \"#utility.yul\":6986:7064   */\n      tag_161\n      jump\t// in\n    tag_268:\n        /* \"#utility.yul\":6978:7064   */\n      swap1\n      pop\n        /* \"#utility.yul\":6660:7071   */\n      swap4\n      swap3\n      pop\n      pop\n      pop\n      jump\t// out\n        /* \"#utility.yul\":7077:7154   */\n    tag_167:\n        /* \"#utility.yul\":7114:7121   */\n      0x00\n        /* \"#utility.yul\":7143:7148   */\n      dup2\n        /* \"#utility.yul\":7132:7148   */\n      swap1\n      pop\n        /* \"#utility.yul\":7077:7154   */\n      swap2\n      swap1\n      pop\n      jump\t// out\n        /* \"#utility.yul\":7160:7278   */\n    tag_168:\n        /* \"#utility.yul\":7247:7271   */\n      tag_271\n        /* \"#utility.yul\":7265:7270   */\n      dup2\n        /* \"#utility.yul\":7247:7271   */\n      tag_167\n      jump\t// in\n    tag_271:\n        /* \"#utility.yul\":7242:7245   */\n      dup3\n        /* \"#utility.yul\":7235:7272   */\n      mstore\n        /* \"#utility.yul\":7160:7278   */\n      pop\n      pop\n      jump\t// out\n        /* \"#utility.yul\":7284:7506   */\n    tag_37:\n        /* \"#utility.yul\":7377:7381   */\n      0x00\n        /* \"#utility.yul\":7415:7417   */\n      0x20\n        /* \"#utility.yul\":7404:7413   */\n      dup3\n        /* \"#utility.yul\":7400:7418   */\n      add\n        /* \"#utility.yul\":7392:7418   */\n      swap1\n      pop\n        /* \"#utility.yul\":7428:7499   */\n      tag_273\n        /* \"#utility.yul\":7496:7497   */\n      0x00\n        /* \"#utility.yul\":7485:7494   */\n      dup4\n        /* \"#utility.yul\":7481:7498   */\n      add\n        /* \"#utility.yul\":7472:7478   */\n      dup5\n        /* \"#utility.yul\":7428:7499   */\n      tag_168\n      jump\t// in\n    tag_273:\n        /* \"#utility.yul\":7284:7506   */\n      swap3\n      swap2\n      pop\n      pop\n      jump\t// out\n        /* \"#utility.yul\":7512:7634   */\n    tag_169:\n        /* \"#utility.yul\":7585:7609   */\n      tag_275\n        /* \"#utility.yul\":7603:7608   */\n      dup2\n        /* \"#utility.yul\":7585:7609   */\n      tag_167\n      jump\t// in\n    tag_275:\n        /* \"#utility.yul\":7578:7583   */\n      dup2\n        /* \"#utility.yul\":7575:7610   */\n      eq\n        /* \"#utility.yul\":7565:7628   */\n      tag_276\n      jumpi\n        /* \"#utility.yul\":7624:7625   */\n      0x00\n        /* \"#utility.yul\":7621:7622   */\n      dup1\n        /* \"#utility.yul\":7614:7626   */\n      revert\n        /* \"#utility.yul\":7565:7628   */\n    tag_276:\n        /* \"#utility.yul\":7512:7634   */\n      pop\n      jump\t// out\n        /* \"#utility.yul\":7640:7779   */\n    tag_170:\n        /* \"#utility.yul\":7686:7691   */\n      0x00\n        /* \"#utility.yul\":7724:7730   */\n      dup2\n        /* \"#utility.yul\":7711:7731   */\n      calldataload\n        /* \"#utility.yul\":7702:7731   */\n      swap1\n      pop\n        /* \"#utility.yul\":7740:7773   */\n      tag_278\n        /* \"#utility.yul\":7767:7772   */\n      dup2\n        /* \"#utility.yul\":7740:7773   */\n      tag_169\n      jump\t// in\n    tag_278:\n        /* \"#utility.yul\":7640:7779   */\n      swap3\n      swap2\n      pop\n      pop\n      jump\t// out\n        /* \"#utility.yul\":7785:8114   */\n    tag_40:\n        /* \"#utility.yul\":7844:7850   */\n      0x00\n        /* \"#utility.yul\":7893:7895   */\n      0x20\n        /* \"#utility.yul\":7881:7890   */\n      dup3\n        /* \"#utility.yul\":7872:7879   */\n      dup5\n        /* \"#utility.yul\":7868:7891   */\n      sub\n        /* \"#utility.yul\":7864:7896   */\n      slt\n        /* \"#utility.yul\":7861:7980   */\n      iszero\n      tag_280\n      jumpi\n        /* \"#utility.yul\":7899:7978   */\n      tag_281\n      tag_146\n      jump\t// in\n    tag_281:\n        /* \"#utility.yul\":7861:7980   */\n    tag_280:\n        /* \"#utility.yul\":8019:8020   */\n      0x00\n        /* \"#utility.yul\":8044:8097   */\n      tag_282\n        /* \"#utility.yul\":8089:8096   */\n      dup5\n        /* \"#utility.yul\":8080:8086   */\n      dup3\n        /* \"#utility.yul\":8069:8078   */\n      dup6\n        /* \"#utility.yul\":8065:8087   */\n      add\n        /* \"#utility.yul\":8044:8097   */\n      tag_170\n      jump\t// in\n    tag_282:\n        /* \"#utility.yul\":8034:8097   */\n      swap2\n      pop\n        /* \"#utility.yul\":7990:8107   */\n      pop\n        /* \"#utility.yul\":7785:8114   */\n      swap3\n      swap2\n      pop\n      pop\n      jump\t// out\n        /* \"#utility.yul\":8120:8835   */\n    tag_43:\n        /* \"#utility.yul\":8329:8333   */\n      0x00\n        /* \"#utility.yul\":8367:8369   */\n      0x60\n        /* \"#utility.yul\":8356:8365   */\n      dup3\n        /* \"#utility.yul\":8352:8370   */\n      add\n        /* \"#utility.yul\":8344:8370   */\n      swap1\n      pop\n        /* \"#utility.yul\":8416:8425   */\n      dup2\n        /* \"#utility.yul\":8410:8414   */\n      dup2\n        /* \"#utility.yul\":8406:8426   */\n      sub\n        /* \"#utility.yul\":8402:8403   */\n      0x00\n        /* \"#utility.yul\":8391:8400   */\n      dup4\n        /* \"#utility.yul\":8387:8404   */\n      add\n        /* \"#utility.yul\":8380:8427   */\n      mstore\n        /* \"#utility.yul\":8444:8522   */\n      tag_284\n        /* \"#utility.yul\":8517:8521   */\n      dup2\n        /* \"#utility.yul\":8508:8514   */\n      dup7\n        /* \"#utility.yul\":8444:8522   */\n      tag_161\n      jump\t// in\n    tag_284:\n        /* \"#utility.yul\":8436:8522   */\n      swap1\n      pop\n        /* \"#utility.yul\":8569:8578   */\n      dup2\n        /* \"#utility.yul\":8563:8567   */\n      dup2\n        /* \"#utility.yul\":8559:8579   */\n      sub\n        /* \"#utility.yul\":8554:8556   */\n      0x20\n        /* \"#utility.yul\":8543:8552   */\n      dup4\n        /* \"#utility.yul\":8539:8557   */\n      add\n        /* \"#utility.yul\":8532:8580   */\n      mstore\n        /* \"#utility.yul\":8597:8675   */\n      tag_285\n        /* \"#utility.yul\":8670:8674   */\n      dup2\n        /* \"#utility.yul\":8661:8667   */\n      dup6\n        /* \"#utility.yul\":8597:8675   */\n      tag_161\n      jump\t// in\n    tag_285:\n        /* \"#utility.yul\":8589:8675   */\n      swap1\n      pop\n        /* \"#utility.yul\":8722:8731   */\n      dup2\n        /* \"#utility.yul\":8716:8720   */\n      dup2\n        /* \"#utility.yul\":8712:8732   */\n      sub\n        /* \"#utility.yul\":8707:8709   */\n      0x40\n        /* \"#utility.yul\":8696:8705   */\n      dup4\n        /* \"#utility.yul\":8692:8710   */\n      add\n        /* \"#utility.yul\":8685:8733   */\n      mstore\n        /* \"#utility.yul\":8750:8828   */\n      tag_286\n        /* \"#utility.yul\":8823:8827   */\n      dup2\n        /* \"#utility.yul\":8814:8820   */\n      dup5\n        /* \"#utility.yul\":8750:8828   */\n      tag_161\n      jump\t// in\n    tag_286:\n        /* \"#utility.yul\":8742:8828   */\n      swap1\n      pop\n        /* \"#utility.yul\":8120:8835   */\n      swap5\n      swap4\n      pop\n      pop\n      pop\n      pop\n      jump\t// out\n        /* \"#utility.yul\":8841:9021   */\n    tag_171:\n        /* \"#utility.yul\":8889:8966   */\n      0x4e487b7100000000000000000000000000000000000000000000000000000000\n        /* \"#utility.yul\":8886:8887   */\n      0x00\n        /* \"#utility.yul\":8879:8967   */\n      mstore\n        /* \"#utility.yul\":8986:8990   */\n      0x22\n        /* \"#utility.yul\":8983:8984   */\n      0x04\n        /* \"#utility.yul\":8976:8991   */\n      mstore\n        /* \"#utility.yul\":9010:9014   */\n      0x24\n        /* \"#utility.yul\":9007:9008   */\n      0x00\n        /* \"#utility.yul\":9000:9015   */\n      revert\n        /* \"#utility.yul\":9027:9347   */\n    tag_49:\n        /* \"#utility.yul\":9071:9077   */\n      0x00\n        /* \"#utility.yul\":9108:9109   */\n      0x02\n        /* \"#utility.yul\":9102:9106   */\n      dup3\n        /* \"#utility.yul\":9098:9110   */\n      div\n        /* \"#utility.yul\":9088:9110   */\n      swap1\n      pop\n        /* \"#utility.yul\":9155:9156   */\n      0x01\n        /* \"#utility.yul\":9149:9153   */\n      dup3\n        /* \"#utility.yul\":9145:9157   */\n      and\n        /* \"#utility.yul\":9176:9194   */\n      dup1\n        /* \"#utility.yul\":9166:9247   */\n      tag_289\n      jumpi\n        /* \"#utility.yul\":9232:9236   */\n      0x7f\n        /* \"#utility.yul\":9224:9230   */\n      dup3\n        /* \"#utility.yul\":9220:9237   */\n      and\n        /* \"#utility.yul\":9210:9237   */\n      swap2\n      pop\n        /* \"#utility.yul\":9166:9247   */\n    tag_289:\n        /* \"#utility.yul\":9294:9296   */\n      0x20\n        /* \"#utility.yul\":9286:9292   */\n      dup3\n        /* \"#utility.yul\":9283:9297   */\n      lt\n        /* \"#utility.yul\":9263:9281   */\n      dup2\n        /* \"#utility.yul\":9260:9298   */\n      sub\n        /* \"#utility.yul\":9257:9341   */\n      tag_290\n      jumpi\n        /* \"#utility.yul\":9313:9331   */\n      tag_291\n      tag_171\n      jump\t// in\n    tag_291:\n        /* \"#utility.yul\":9257:9341   */\n    tag_290:\n        /* \"#utility.yul\":9078:9347   */\n      pop\n        /* \"#utility.yul\":9027:9347   */\n      swap2\n      swap1\n      pop\n      jump\t// out\n        /* \"#utility.yul\":9353:9517   */\n    tag_172:\n        /* \"#utility.yul\":9493:9509   */\n      0x4e6f7420617574686f72697a6564000000000000000000000000000000000000\n        /* \"#utility.yul\":9489:9490   */\n      0x00\n        /* \"#utility.yul\":9481:9487   */\n      dup3\n        /* \"#utility.yul\":9477:9491   */\n      add\n        /* \"#utility.yul\":9470:9510   */\n      mstore\n        /* \"#utility.yul\":9353:9517   */\n      pop\n      jump\t// out\n        /* \"#utility.yul\":9523:9889   */\n    tag_173:\n        /* \"#utility.yul\":9665:9668   */\n      0x00\n        /* \"#utility.yul\":9686:9753   */\n      tag_294\n        /* \"#utility.yul\":9750:9752   */\n      0x0e\n        /* \"#utility.yul\":9745:9748   */\n      dup4\n        /* \"#utility.yul\":9686:9753   */\n      tag_159\n      jump\t// in\n    tag_294:\n        /* \"#utility.yul\":9679:9753   */\n      swap2\n      pop\n        /* \"#utility.yul\":9762:9855   */\n      tag_295\n        /* \"#utility.yul\":9851:9854   */\n      dup3\n        /* \"#utility.yul\":9762:9855   */\n      tag_172\n      jump\t// in\n    tag_295:\n        /* \"#utility.yul\":9880:9882   */\n      0x20\n        /* \"#utility.yul\":9875:9878   */\n      dup3\n        /* \"#utility.yul\":9871:9883   */\n      add\n        /* \"#utility.yul\":9864:9883   */\n      swap1\n      pop\n        /* \"#utility.yul\":9523:9889   */\n      swap2\n      swap1\n      pop\n      jump\t// out\n        /* \"#utility.yul\":9895:10314   */\n    tag_67:\n        /* \"#utility.yul\":10061:10065   */\n      0x00\n        /* \"#utility.yul\":10099:10101   */\n      0x20\n        /* \"#utility.yul\":10088:10097   */\n      dup3\n        /* \"#utility.yul\":10084:10102   */\n      add\n        /* \"#utility.yul\":10076:10102   */\n      swap1\n      pop\n        /* \"#utility.yul\":10148:10157   */\n      dup2\n        /* \"#utility.yul\":10142:10146   */\n      dup2\n        /* \"#utility.yul\":10138:10158   */\n      sub\n        /* \"#utility.yul\":10134:10135   */\n      0x00\n        /* \"#utility.yul\":10123:10132   */\n      dup4\n        /* \"#utility.yul\":10119:10136   */\n      add\n        /* \"#utility.yul\":10112:10159   */\n      mstore\n        /* \"#utility.yul\":10176:10307   */\n      tag_297\n        /* \"#utility.yul\":10302:10306   */\n      dup2\n        /* \"#utility.yul\":10176:10307   */\n      tag_173\n      jump\t// in\n    tag_297:\n        /* \"#utility.yul\":10168:10307   */\n      swap1\n      pop\n        /* \"#utility.yul\":9895:10314   */\n      swap2\n      swap1\n      pop\n      jump\t// out\n        /* \"#utility.yul\":10320:10468   */\n    tag_174:\n        /* \"#utility.yul\":10422:10433   */\n      0x00\n        /* \"#utility.yul\":10459:10462   */\n      dup2\n        /* \"#utility.yul\":10444:10462   */\n      swap1\n      pop\n        /* \"#utility.yul\":10320:10468   */\n      swap3\n      swap2\n      pop\n      pop\n      jump\t// out\n        /* \"#utility.yul\":10474:10864   */\n    tag_175:\n        /* \"#utility.yul\":10580:10583   */\n      0x00\n        /* \"#utility.yul\":10608:10647   */\n      tag_300\n        /* \"#utility.yul\":10641:10646   */\n      dup3\n        /* \"#utility.yul\":10608:10647   */\n      tag_158\n      jump\t// in\n    tag_300:\n        /* \"#utility.yul\":10663:10752   */\n      tag_301\n        /* \"#utility.yul\":10745:10751   */\n      dup2\n        /* \"#utility.yul\":10740:10743   */\n      dup6\n        /* \"#utility.yul\":10663:10752   */\n      tag_174\n      jump\t// in\n    tag_301:\n        /* \"#utility.yul\":10656:10752   */\n      swap4\n      pop\n        /* \"#utility.yul\":10761:10826   */\n      tag_302\n        /* \"#utility.yul\":10819:10825   */\n      dup2\n        /* \"#utility.yul\":10814:10817   */\n      dup6\n        /* \"#utility.yul\":10807:10811   */\n      0x20\n        /* \"#utility.yul\":10800:10805   */\n      dup7\n        /* \"#utility.yul\":10796:10812   */\n      add\n        /* \"#utility.yul\":10761:10826   */\n      tag_160\n      jump\t// in\n    tag_302:\n        /* \"#utility.yul\":10851:10857   */\n      dup1\n        /* \"#utility.yul\":10846:10849   */\n      dup5\n        /* \"#utility.yul\":10842:10858   */\n      add\n        /* \"#utility.yul\":10835:10858   */\n      swap2\n      pop\n        /* \"#utility.yul\":10584:10864   */\n      pop\n        /* \"#utility.yul\":10474:10864   */\n      swap3\n      swap2\n      pop\n      pop\n      jump\t// out\n        /* \"#utility.yul\":10870:11145   */\n    tag_70:\n        /* \"#utility.yul\":11002:11005   */\n      0x00\n        /* \"#utility.yul\":11024:11119   */\n      tag_304\n        /* \"#utility.yul\":11115:11118   */\n      dup3\n        /* \"#utility.yul\":11106:11112   */\n      dup5\n        /* \"#utility.yul\":11024:11119   */\n      tag_175\n      jump\t// in\n    tag_304:\n        /* \"#utility.yul\":11017:11119   */\n      swap2\n      pop\n        /* \"#utility.yul\":11136:11139   */\n      dup2\n        /* \"#utility.yul\":11129:11139   */\n      swap1\n      pop\n        /* \"#utility.yul\":10870:11145   */\n      swap3\n      swap2\n      pop\n      pop\n      jump\t// out\n        /* \"#utility.yul\":11151:11323   */\n    tag_176:\n        /* \"#utility.yul\":11291:11315   */\n      0x50726f6475637420616c72656164792065786973747300000000000000000000\n        /* \"#utility.yul\":11287:11288   */\n      0x00\n        /* \"#utility.yul\":11279:11285   */\n      dup3\n        /* \"#utility.yul\":11275:11289   */\n      add\n        /* \"#utility.yul\":11268:11316   */\n      mstore\n        /* \"#utility.yul\":11151:11323   */\n      pop\n      jump\t// out\n        /* \"#utility.yul\":11329:11695   */\n    tag_177:\n        /* \"#utility.yul\":11471:11474   */\n      0x00\n        /* \"#utility.yul\":11492:11559   */\n      tag_307\n        /* \"#utility.yul\":11556:11558   */\n      0x16\n        /* \"#utility.yul\":11551:11554   */\n      dup4\n        /* \"#utility.yul\":11492:11559   */\n      tag_159\n      jump\t// in\n    tag_307:\n        /* \"#utility.yul\":11485:11559   */\n      swap2\n      pop\n        /* \"#utility.yul\":11568:11661   */\n      tag_308\n        /* \"#utility.yul\":11657:11660   */\n      dup3\n        /* \"#utility.yul\":11568:11661   */\n      tag_176\n      jump\t// in\n    tag_308:\n        /* \"#utility.yul\":11686:11688   */\n      0x20\n        /* \"#utility.yul\":11681:11684   */\n      dup3\n        /* \"#utility.yul\":11677:11689   */\n      add\n        /* \"#utility.yul\":11670:11689   */\n      swap1\n      pop\n        /* \"#utility.yul\":11329:11695   */\n      swap2\n      swap1\n      pop\n      jump\t// out\n        /* \"#utility.yul\":11701:12120   */\n    tag_74:\n        /* \"#utility.yul\":11867:11871   */\n      0x00\n        /* \"#utility.yul\":11905:11907   */\n      0x20\n        /* \"#utility.yul\":11894:11903   */\n      dup3\n        /* \"#utility.yul\":11890:11908   */\n      add\n        /* \"#utility.yul\":11882:11908   */\n      swap1\n      pop\n        /* \"#utility.yul\":11954:11963   */\n      dup2\n        /* \"#utility.yul\":11948:11952   */\n      dup2\n        /* \"#utility.yul\":11944:11964   */\n      sub\n        /* \"#utility.yul\":11940:11941   */\n      0x00\n        /* \"#utility.yul\":11929:11938   */\n      dup4\n        /* \"#utility.yul\":11925:11942   */\n      add\n        /* \"#utility.yul\":11918:11965   */\n      mstore\n        /* \"#utility.yul\":11982:12113   */\n      tag_310\n        /* \"#utility.yul\":12108:12112   */\n      dup2\n        /* \"#utility.yul\":11982:12113   */\n      tag_177\n      jump\t// in\n    tag_310:\n        /* \"#utility.yul\":11974:12113   */\n      swap1\n      pop\n        /* \"#utility.yul\":11701:12120   */\n      swap2\n      swap1\n      pop\n      jump\t// out\n        /* \"#utility.yul\":12126:12267   */\n    tag_178:\n        /* \"#utility.yul\":12175:12179   */\n      0x00\n        /* \"#utility.yul\":12198:12201   */\n      dup2\n        /* \"#utility.yul\":12190:12201   */\n      swap1\n      pop\n        /* \"#utility.yul\":12221:12224   */\n      dup2\n        /* \"#utility.yul\":12218:12219   */\n      0x00\n        /* \"#utility.yul\":12211:12225   */\n      mstore\n        /* \"#utility.yul\":12255:12259   */\n      0x20\n        /* \"#utility.yul\":12252:12253   */\n      0x00\n        /* \"#utility.yul\":12242:12260   */\n      keccak256\n        /* \"#utility.yul\":12234:12260   */\n      swap1\n      pop\n        /* \"#utility.yul\":12126:12267   */\n      swap2\n      swap1\n      pop\n      jump\t// out\n        /* \"#utility.yul\":12273:12366   */\n    tag_179:\n        /* \"#utility.yul\":12310:12316   */\n      0x00\n        /* \"#utility.yul\":12357:12359   */\n      0x20\n        /* \"#utility.yul\":12352:12354   */\n      0x1f\n        /* \"#utility.yul\":12345:12350   */\n      dup4\n        /* \"#utility.yul\":12341:12355   */\n      add\n        /* \"#utility.yul\":12337:12360   */\n      div\n        /* \"#utility.yul\":12327:12360   */\n      swap1\n      pop\n        /* \"#utility.yul\":12273:12366   */\n      swap2\n      swap1\n      pop\n      jump\t// out\n        /* \"#utility.yul\":12372:12479   */\n    tag_180:\n        /* \"#utility.yul\":12416:12424   */\n      0x00\n        /* \"#utility.yul\":12466:12471   */\n      dup3\n        /* \"#utility.yul\":12460:12464   */\n      dup3\n        /* \"#utility.yul\":12456:12472   */\n      shl\n        /* \"#utility.yul\":12435:12472   */\n      swap1\n      pop\n        /* \"#utility.yul\":12372:12479   */\n      swap3\n      swap2\n      pop\n      pop\n      jump\t// out\n        /* \"#utility.yul\":12485:12878   */\n    tag_181:\n        /* \"#utility.yul\":12554:12560   */\n      0x00\n        /* \"#utility.yul\":12604:12605   */\n      0x08\n        /* \"#utility.yul\":12592:12602   */\n      dup4\n        /* \"#utility.yul\":12588:12606   */\n      mul\n        /* \"#utility.yul\":12627:12724   */\n      tag_315\n        /* \"#utility.yul\":12657:12723   */\n      0xffffffffffffffffffffffffffffffffffffffffffffffffffffffffffffffff\n        /* \"#utility.yul\":12646:12655   */\n      dup3\n        /* \"#utility.yul\":12627:12724   */\n      tag_180\n      jump\t// in\n    tag_315:\n        /* \"#utility.yul\":12745:12784   */\n      tag_316\n        /* \"#utility.yul\":12775:12783   */\n      dup7\n        /* \"#utility.yul\":12764:12773   */\n      dup4\n        /* \"#utility.yul\":12745:12784   */\n      tag_180\n      jump\t// in\n    tag_316:\n        /* \"#utility.yul\":12733:12784   */\n      swap6\n      pop\n        /* \"#utility.yul\":12817:12821   */\n      dup1\n        /* \"#utility.yul\":12813:12822   */\n      not\n        /* \"#utility.yul\":12806:12811   */\n      dup5\n        /* \"#utility.yul\":12802:12823   */\n      and\n        /* \"#utility.yul\":12793:12823   */\n      swap4\n      pop\n        /* \"#utility.yul\":12866:12870   */\n      dup1\n        /* \"#utility.yul\":12856:12864   */\n      dup7\n        /* \"#utility.yul\":12852:12871   */\n      and\n        /* \"#utility.yul\":12845:12850   */\n      dup5\n        /* \"#utility.yul\":12842:12872   */\n      or\n        /* \"#utility.yul\":12832:12872   */\n      swap3\n      pop\n        /* \"#utility.yul\":12561:12878   */\n      pop\n      pop\n        /* \"#utility.yul\":12485:12878   */\n      swap4\n      swap3\n      pop\n      pop\n      pop\n      jump\t// out\n        /* \"#utility.yul\":12884:12944   */\n    tag_182:\n        /* \"#utility.yul\":12912:12915   */\n      0x00\n        /* \"#utility.yul\":12933:12938   */\n      dup2\n        /* \"#utility.yul\":12926:12938   */\n      swap1\n      pop\n        /* \"#utility.yul\":12884:12944   */\n      swap2\n      swap1\n      pop\n      jump\t// out\n        /* \"#utility.yul\":12950:13092   */\n    tag_183:\n        /* \"#utility.yul\":13000:13009   */\n      0x00\n        /* \"#utility.yul\":13033:13086   */\n      tag_319\n        /* \"#utility.yul\":13051:13085   */\n      tag_320\n        /* \"#utility.yul\":13060:13084   */\n      tag_321\n        /* \"#utility.yul\":13078:13083   */\n      dup5\n        /* \"#utility.yul\":13060:13084   */\n      tag_167\n      jump\t// in\n    tag_321:\n        /* \"#utility.yul\":13051:13085   */\n      tag_182\n      jump\t// in\n    tag_320:\n        /* \"#utility.yul\":13033:13086   */\n      tag_167\n      jump\t// in\n    tag_319:\n        /* \"#utility.yul\":13020:13086   */\n      swap1\n      pop\n        /* \"#utility.yul\":12950:13092   */\n      swap2\n      swap1\n      pop\n      jump\t// out\n        /* \"#utility.yul\":13098:13173   */\n    tag_184:\n        /* \"#utility.yul\":13141:13144   */\n      0x00\n        /* \"#utility.yul\":13162:13167   */\n      dup2\n        /* \"#utility.yul\":13155:13167   */\n      swap1\n      pop\n        /* \"#utility.yul\":13098:13173   */\n      swap2\n      swap1\n      pop\n      jump\t// out\n        /* \"#utility.yul\":13179:13448   */\n    tag_185:\n        /* \"#utility.yul\":13289:13328   */\n      tag_324\n        /* \"#utility.yul\":13320:13327   */\n      dup4\n        /* \"#utility.yul\":13289:13328   */\n      tag_183\n      jump\t// in\n    tag_324:\n        /* \"#utility.yul\":13350:13441   */\n      tag_325\n        /* \"#utility.yul\":13399:13440   */\n      tag_326\n        /* \"#utility.yul\":13423:13439   */\n      dup3\n        /* \"#utility.yul\":13399:13440   */\n      tag_184\n      jump\t// in\n    tag_326:\n        /* \"#utility.yul\":13391:13397   */\n      dup5\n        /* \"#utility.yul\":13384:13388   */\n      dup5\n        /* \"#utility.yul\":13378:13389   */\n      sload\n        /* \"#utility.yul\":13350:13441   */\n      tag_181\n      jump\t// in\n    tag_325:\n        /* \"#utility.yul\":13344:13348   */\n      dup3\n        /* \"#utility.yul\":13337:13442   */\n      sstore\n        /* \"#utility.yul\":13255:13448   */\n      pop\n        /* \"#utility.yul\":13179:13448   */\n      pop\n      pop\n      pop\n      jump\t// out\n        /* \"#utility.yul\":13454:13527   */\n    tag_186:\n        /* \"#utility.yul\":13499:13502   */\n      0x00\n        /* \"#utility.yul\":13454:13527   */\n      swap1\n      jump\t// out\n        /* \"#utility.yul\":13533:13722   */\n    tag_187:\n        /* \"#utility.yul\":13610:13642   */\n      tag_329\n      tag_186\n      jump\t// in\n    tag_329:\n        /* \"#utility.yul\":13651:13716   */\n      tag_330\n        /* \"#utility.yul\":13709:13715   */\n      dup2\n        /* \"#utility.yul\":13701:13707   */\n      dup5\n        /* \"#utility.yul\":13695:13699   */\n      dup5\n        /* \"#utility.yul\":13651:13716   */\n      tag_185\n      jump\t// in\n    tag_330:\n        /* \"#utility.yul\":13586:13722   */\n      pop\n        /* \"#utility.yul\":13533:13722   */\n      pop\n      pop\n      jump\t// out\n        /* \"#utility.yul\":13728:13914   */\n    tag_188:\n        /* \"#utility.yul\":13788:13908   */\n    tag_332:\n        /* \"#utility.yul\":13805:13808   */\n      dup2\n        /* \"#utility.yul\":13798:13803   */\n      dup2\n        /* \"#utility.yul\":13795:13809   */\n      lt\n        /* \"#utility.yul\":13788:13908   */\n      iszero\n      tag_334\n      jumpi\n        /* \"#utility.yul\":13859:13898   */\n      tag_335\n        /* \"#utility.yul\":13896:13897   */\n      0x00\n        /* \"#utility.yul\":13889:13894   */\n      dup3\n        /* \"#utility.yul\":13859:13898   */\n      tag_187\n      jump\t// in\n    tag_335:\n        /* \"#utility.yul\":13832:13833   */\n      0x01\n        /* \"#utility.yul\":13825:13830   */\n      dup2\n        /* \"#utility.yul\":13821:13834   */\n      add\n        /* \"#utility.yul\":13812:13834   */\n      swap1\n      pop\n        /* \"#utility.yul\":13788:13908   */\n      jump(tag_332)\n    tag_334:\n        /* \"#utility.yul\":13728:13914   */\n      pop\n      pop\n      jump\t// out\n        /* \"#utility.yul\":13920:14463   */\n    tag_189:\n        /* \"#utility.yul\":14021:14023   */\n      0x1f\n        /* \"#utility.yul\":14016:14019   */\n      dup3\n        /* \"#utility.yul\":14013:14024   */\n      gt\n        /* \"#utility.yul\":14010:14456   */\n      iszero\n      tag_337\n      jumpi\n        /* \"#utility.yul\":14055:14093   */\n      tag_338\n        /* \"#utility.yul\":14087:14092   */\n      dup2\n        /* \"#utility.yul\":14055:14093   */\n      tag_178\n      jump\t// in\n    tag_338:\n        /* \"#utility.yul\":14139:14168   */\n      tag_339\n        /* \"#utility.yul\":14157:14167   */\n      dup5\n        /* \"#utility.yul\":14139:14168   */\n      tag_179\n      jump\t// in\n    tag_339:\n        /* \"#utility.yul\":14129:14137   */\n      dup2\n        /* \"#utility.yul\":14125:14169   */\n      add\n        /* \"#utility.yul\":14322:14324   */\n      0x20\n        /* \"#utility.yul\":14310:14320   */\n      dup6\n        /* \"#utility.yul\":14307:14325   */\n      lt\n        /* \"#utility.yul\":14304:14353   */\n      iszero\n      tag_340\n      jumpi\n        /* \"#utility.yul\":14343:14351   */\n      dup2\n        /* \"#utility.yul\":14328:14351   */\n      swap1\n      pop\n        /* \"#utility.yul\":14304:14353   */\n    tag_340:\n        /* \"#utility.yul\":14366:14446   */\n      tag_341\n        /* \"#utility.yul\":14422:14444   */\n      tag_342\n        /* \"#utility.yul\":14440:14443   */\n      dup6\n        /* \"#utility.yul\":14422:14444   */\n      tag_179\n      jump\t// in\n    tag_342:\n        /* \"#utility.yul\":14412:14420   */\n      dup4\n        /* \"#utility.yul\":14408:14445   */\n      add\n        /* \"#utility.yul\":14395:14406   */\n      dup3\n        /* \"#utility.yul\":14366:14446   */\n      tag_188\n      jump\t// in\n    tag_341:\n        /* \"#utility.yul\":14025:14456   */\n      pop\n      pop\n        /* \"#utility.yul\":14010:14456   */\n    tag_337:\n        /* \"#utility.yul\":13920:14463   */\n      pop\n      pop\n      pop\n      jump\t// out\n        /* \"#utility.yul\":14469:14586   */\n    tag_190:\n        /* \"#utility.yul\":14523:14531   */\n      0x00\n        /* \"#utility.yul\":14573:14578   */\n      dup3\n        /* \"#utility.yul\":14567:14571   */\n      dup3\n        /* \"#utility.yul\":14563:14579   */\n      shr\n        /* \"#utility.yul\":14542:14579   */\n      swap1\n      pop\n        /* \"#utility.yul\":14469:14586   */\n      swap3\n      swap2\n      pop\n      pop\n      jump\t// out\n        /* \"#utility.yul\":14592:14761   */\n    tag_191:\n        /* \"#utility.yul\":14636:14642   */\n      0x00\n        /* \"#utility.yul\":14669:14720   */\n      tag_345\n        /* \"#utility.yul\":14717:14718   */\n      0x00\n        /* \"#utility.yul\":14713:14719   */\n      not\n        /* \"#utility.yul\":14705:14710   */\n      dup5\n        /* \"#utility.yul\":14702:14703   */\n      0x08\n        /* \"#utility.yul\":14698:14711   */\n      mul\n        /* \"#utility.yul\":14669:14720   */\n      tag_190\n      jump\t// in\n    tag_345:\n        /* \"#utility.yul\":14665:14721   */\n      not\n        /* \"#utility.yul\":14750:14754   */\n      dup1\n        /* \"#utility.yul\":14744:14748   */\n      dup4\n        /* \"#utility.yul\":14740:14755   */\n      and\n        /* \"#utility.yul\":14730:14755   */\n      swap2\n      pop\n        /* \"#utility.yul\":14643:14761   */\n      pop\n        /* \"#utility.yul\":14592:14761   */\n      swap3\n      swap2\n      pop\n      pop\n      jump\t// out\n        /* \"#utility.yul\":14766:15061   */\n    tag_192:\n        /* \"#utility.yul\":14842:14846   */\n      0x00\n        /* \"#utility.yul\":14988:15017   */\n      tag_347\n        /* \"#utility.yul\":15013:15016   */\n      dup4\n        /* \"#utility.yul\":15007:15011   */\n      dup4\n        /* \"#utility.yul\":14988:15017   */\n      tag_191\n      jump\t// in\n    tag_347:\n        /* \"#utility.yul\":14980:15017   */\n      swap2\n      pop\n        /* \"#utility.yul\":15050:15053   */\n      dup3\n        /* \"#utility.yul\":15047:15048   */\n      0x02\n        /* \"#utility.yul\":15043:15054   */\n      mul\n        /* \"#utility.yul\":15037:15041   */\n      dup3\n        /* \"#utility.yul\":15034:15055   */\n      or\n        /* \"#utility.yul\":15026:15055   */\n      swap1\n      pop\n        /* \"#utility.yul\":14766:15061   */\n      swap3\n      swap2\n      pop\n      pop\n      jump\t// out\n        /* \"#utility.yul\":15066:16461   */\n    tag_77:\n        /* \"#utility.yul\":15183:15220   */\n      tag_349\n        /* \"#utility.yul\":15216:15219   */\n      dup3\n        /* \"#utility.yul\":15183:15220   */\n      tag_158\n      jump\t// in\n    tag_349:\n        /* \"#utility.yul\":15285:15303   */\n      0xffffffffffffffff\n        /* \"#utility.yul\":15277:15283   */\n      dup2\n        /* \"#utility.yul\":15274:15304   */\n      gt\n        /* \"#utility.yul\":15271:15327   */\n      iszero\n      tag_350\n      jumpi\n        /* \"#utility.yul\":15307:15325   */\n      tag_351\n      tag_151\n      jump\t// in\n    tag_351:\n        /* \"#utility.yul\":15271:15327   */\n    tag_350:\n        /* \"#utility.yul\":15351:15389   */\n      tag_352\n        /* \"#utility.yul\":15383:15387   */\n      dup3\n        /* \"#utility.yul\":15377:15388   */\n      sload\n        /* \"#utility.yul\":15351:15389   */\n      tag_49\n      jump\t// in\n    tag_352:\n        /* \"#utility.yul\":15436:15503   */\n      tag_353\n        /* \"#utility.yul\":15496:15502   */\n      dup3\n        /* \"#utility.yul\":15488:15494   */\n      dup3\n        /* \"#utility.yul\":15482:15486   */\n      dup6\n        /* \"#utility.yul\":15436:15503   */\n      tag_189\n      jump\t// in\n    tag_353:\n        /* \"#utility.yul\":15530:15531   */\n      0x00\n        /* \"#utility.yul\":15554:15558   */\n      0x20\n        /* \"#utility.yul\":15541:15558   */\n      swap1\n      pop\n        /* \"#utility.yul\":15586:15588   */\n      0x1f\n        /* \"#utility.yul\":15578:15584   */\n      dup4\n        /* \"#utility.yul\":15575:15589   */\n      gt\n        /* \"#utility.yul\":15603:15604   */\n      0x01\n        /* \"#utility.yul\":15598:16216   */\n      dup2\n      eq\n      tag_355\n      jumpi\n        /* \"#utility.yul\":16260:16261   */\n      0x00\n        /* \"#utility.yul\":16277:16283   */\n      dup5\n        /* \"#utility.yul\":16274:16351   */\n      iszero\n      tag_356\n      jumpi\n        /* \"#utility.yul\":16326:16335   */\n      dup3\n        /* \"#utility.yul\":16321:16324   */\n      dup8\n        /* \"#utility.yul\":16317:16336   */\n      add\n        /* \"#utility.yul\":16311:16337   */\n      mload\n        /* \"#utility.yul\":16302:16337   */\n      swap1\n      pop\n        /* \"#utility.yul\":16274:16351   */\n    tag_356:\n        /* \"#utility.yul\":16377:16444   */\n      tag_357\n        /* \"#utility.yul\":16437:16443   */\n      dup6\n        /* \"#utility.yul\":16430:16435   */\n      dup3\n        /* \"#utility.yul\":16377:16444   */\n      tag_192\n      jump\t// in\n    tag_357:\n        /* \"#utility.yul\":16371:16375   */\n      dup7\n        /* \"#utility.yul\":16364:16445   */\n      sstore\n        /* \"#utility.yul\":16233:16455   */\n      pop\n        /* \"#utility.yul\":15568:16455   */\n      jump(tag_354)\n        /* \"#utility.yul\":15598:16216   */\n    tag_355:\n        /* \"#utility.yul\":15650:15654   */\n      0x1f\n        /* \"#utility.yul\":15646:15655   */\n      not\n        /* \"#utility.yul\":15638:15644   */\n      dup5\n        /* \"#utility.yul\":15634:15656   */\n      and\n        /* \"#utility.yul\":15684:15721   */\n      tag_358\n        /* \"#utility.yul\":15716:15720   */\n      dup7\n        /* \"#utility.yul\":15684:15721   */\n      tag_178\n      jump\t// in\n    tag_358:\n        /* \"#utility.yul\":15743:15744   */\n      0x00\n        /* \"#utility.yul\":15757:15965   */\n    tag_359:\n        /* \"#utility.yul\":15771:15778   */\n      dup3\n        /* \"#utility.yul\":15768:15769   */\n      dup2\n        /* \"#utility.yul\":15765:15779   */\n      lt\n        /* \"#utility.yul\":15757:15965   */\n      iszero\n      tag_361\n      jumpi\n        /* \"#utility.yul\":15850:15859   */\n      dup5\n        /* \"#utility.yul\":15845:15848   */\n      dup10\n        /* \"#utility.yul\":15841:15860   */\n      add\n        /* \"#utility.yul\":15835:15861   */\n      mload\n        /* \"#utility.yul\":15827:15833   */\n      dup3\n        /* \"#utility.yul\":15820:15862   */\n      sstore\n        /* \"#utility.yul\":15901:15902   */\n      0x01\n        /* \"#utility.yul\":15893:15899   */\n      dup3\n        /* \"#utility.yul\":15889:15903   */\n      add\n        /* \"#utility.yul\":15879:15903   */\n      swap2\n      pop\n        /* \"#utility.yul\":15948:15950   */\n      0x20\n        /* \"#utility.yul\":15937:15946   */\n      dup6\n        /* \"#utility.yul\":15933:15951   */\n      add\n        /* \"#utility.yul\":15920:15951   */\n      swap5\n      pop\n        /* \"#utility.yul\":15794:15798   */\n      0x20\n        /* \"#utility.yul\":15791:15792   */\n      dup2\n        /* \"#utility.yul\":15787:15799   */\n      add\n        /* \"#utility.yul\":15782:15799   */\n      swap1\n      pop\n        /* \"#utility.yul\":15757:15965   */\n      jump(tag_359)\n    tag_361:\n        /* \"#utility.yul\":15993:15999   */\n      dup7\n        /* \"#utility.yul\":15984:15991   */\n      dup4\n        /* \"#utility.yul\":15981:16000   */\n      lt\n        /* \"#utility.yul\":15978:16157   */\n      iszero\n      tag_362\n      jumpi\n        /* \"#utility.yul\":16051:16060   */\n      dup5\n        /* \"#utility.yul\":16046:16049   */\n      dup10\n        /* \"#utility.yul\":16042:16061   */\n      add\n        /* \"#utility.yul\":16036:16062   */\n      mload\n        /* \"#utility.yul\":16094:16142   */\n      tag_363\n        /* \"#utility.yul\":16136:16140   */\n      0x1f\n        /* \"#utility.yul\":16128:16134   */\n      dup10\n        /* \"#utility.yul\":16124:16141   */\n      and\n        /* \"#utility.yul\":16113:16122   */\n      dup3\n        /* \"#utility.yul\":16094:16142   */\n      tag_191\n      jump\t// in\n    tag_363:\n        /* \"#utility.yul\":16086:16092   */\n      dup4\n        /* \"#utility.yul\":16079:16143   */\n      sstore\n        /* \"#utility.yul\":16001:16157   */\n      pop\n        /* \"#utility.yul\":15978:16157   */\n    tag_362:\n        /* \"#utility.yul\":16203:16204   */\n      0x01\n        /* \"#utility.yul\":16199:16200   */\n      0x02\n        /* \"#utility.yul\":16191:16197   */\n      dup9\n        /* \"#utility.yul\":16187:16201   */\n      mul\n        /* \"#utility.yul\":16183:16205   */\n      add\n        /* \"#utility.yul\":16177:16181   */\n      dup9\n        /* \"#utility.yul\":16170:16206   */\n      sstore\n        /* \"#utility.yul\":15605:16216   */\n      pop\n      pop\n      pop\n        /* \"#utility.yul\":15568:16455   */\n    tag_354:\n      pop\n        /* \"#utility.yul\":15158:16461   */\n      pop\n      pop\n      pop\n        /* \"#utility.yul\":15066:16461   */\n      pop\n      pop\n      jump\t// out\n        /* \"#utility.yul\":16467:16630   */\n    tag_193:\n        /* \"#utility.yul\":16607:16622   */\n      0x496e76616c696420696e64657800000000000000000000000000000000000000\n        /* \"#utility.yul\":16603:16604   */\n      0x00\n        /* \"#utility.yul\":16595:16601   */\n      dup3\n        /* \"#utility.yul\":16591:16605   */\n      add\n        /* \"#utility.yul\":16584:16623   */\n      mstore\n        /* \"#utility.yul\":16467:16630   */\n      pop\n      jump\t// out\n        /* \"#utility.yul\":16636:17002   */\n    tag_194:\n        /* \"#utility.yul\":16778:16781   */\n      0x00\n        /* \"#utility.yul\":16799:16866   */\n      tag_366\n        /* \"#utility.yul\":16863:16865   */\n      0x0d\n        /* \"#utility.yul\":16858:16861   */\n      dup4\n        /* \"#utility.yul\":16799:16866   */\n      tag_159\n      jump\t// in\n    tag_366:\n        /* \"#utility.yul\":16792:16866   */\n      swap2\n      pop\n        /* \"#utility.yul\":16875:16968   */\n      tag_367\n        /* \"#utility.yul\":16964:16967   */\n      dup3\n        /* \"#utility.yul\":16875:16968   */\n      tag_193\n      jump\t// in\n    tag_367:\n        /* \"#utility.yul\":16993:16995   */\n      0x20\n        /* \"#utility.yul\":16988:16991   */\n      dup3\n        /* \"#utility.yul\":16984:16996   */\n      add\n        /* \"#utility.yul\":16977:16996   */\n      swap1\n      pop\n        /* \"#utility.yul\":16636:17002   */\n      swap2\n      swap1\n      pop\n      jump\t// out\n        /* \"#utility.yul\":17008:17427   */\n    tag_108:\n        /* \"#utility.yul\":17174:17178   */\n      0x00\n        /* \"#utility.yul\":17212:17214   */\n      0x20\n        /* \"#utility.yul\":17201:17210   */\n      dup3\n        /* \"#utility.yul\":17197:17215   */\n      add\n        /* \"#utility.yul\":17189:17215   */\n      swap1\n      pop\n        /* \"#utility.yul\":17261:17270   */\n      dup2\n        /* \"#utility.yul\":17255:17259   */\n      dup2\n        /* \"#utility.yul\":17251:17271   */\n      sub\n        /* \"#utility.yul\":17247:17248   */\n      0x00\n        /* \"#utility.yul\":17236:17245   */\n      dup4\n        /* \"#utility.yul\":17232:17249   */\n      add\n        /* \"#utility.yul\":17225:17272   */\n      mstore\n        /* \"#utility.yul\":17289:17420   */\n      tag_369\n        /* \"#utility.yul\":17415:17419   */\n      dup2\n        /* \"#utility.yul\":17289:17420   */\n      tag_194\n      jump\t// in\n    tag_369:\n        /* \"#utility.yul\":17281:17420   */\n      swap1\n      pop\n        /* \"#utility.yul\":17008:17427   */\n      swap2\n      swap1\n      pop\n      jump\t// out\n        /* \"#utility.yul\":17433:17613   */\n    tag_111:\n        /* \"#utility.yul\":17481:17558   */\n      0x4e487b7100000000000000000000000000000000000000000000000000000000\n        /* \"#utility.yul\":17478:17479   */\n      0x00\n        /* \"#utility.yul\":17471:17559   */\n      mstore\n        /* \"#utility.yul\":17578:17582   */\n      0x32\n        /* \"#utility.yul\":17575:17576   */\n      0x04\n        /* \"#utility.yul\":17568:17583   */\n      mstore\n        /* \"#utility.yul\":17602:17606   */\n      0x24\n        /* \"#utility.yul\":17599:17600   */\n      0x00\n        /* \"#utility.yul\":17592:17607   */\n      revert\n\n    auxdata: 0xa2646970667358221220d25c2132ccd7080c5dcb55322caa7010a867f61e21a0f16854d60786b489f69d64736f6c634300081a0033\n}\n",
				"bytecode": {
					"linkReferences": {},
					"object": "6080604052348015600e575f80fd5b50335f806101000a81548173ffffffffffffffffffffffffffffffffffffffff021916908373ffffffffffffffffffffffffffffffffffffffff1602179055506115ac8061005b5f395ff3fe608060405234801561000f575f80fd5b5060043610610086575f3560e01c806392efc4531161005957806392efc45314610113578063960394cf14610144578063c9237eef14610162578063d2dd015e1461019457610086565b80630186a4231461008a5780630e34b00e146100bd578063880162b1146100d95780638da5cb5b146100f5575b5f80fd5b6100a4600480360381019061009f9190610de5565b6101c6565b6040516100b49493929190610ea6565b60405180910390f35b6100d760048036038101906100d29190610efe565b6103a8565b005b6100f360048036038101906100ee9190610efe565b61054d565b005b6100fd6105d7565b60405161010a9190610fe1565b60405180910390f35b61012d60048036038101906101289190610de5565b6105fa565b60405161013b929190610ffa565b60405180910390f35b61014c610880565b6040516101599190611040565b60405180910390f35b61017c60048036038101906101779190611083565b61088c565b60405161018b939291906110ae565b60405180910390f35b6101ae60048036038101906101a99190611083565b610ad1565b6040516101bd939291906110ae565b60405180910390f35b6001818051602081018201805184825260208301602085012081835280955050505050505f91509050805f0180546101fd90611125565b80601f016020809104026020016040519081016040528092919081815260200182805461022990611125565b80156102745780601f1061024b57610100808354040283529160200191610274565b820191905f5260205f20905b81548152906001019060200180831161025757829003601f168201915b50505050509080600101805461028990611125565b80601f01602080910402602001604051908101604052809291908181526020018280546102b590611125565b80156103005780601f106102d757610100808354040283529160200191610300565b820191905f5260205f20905b8154815290600101906020018083116102e357829003601f168201915b50505050509080600201805461031590611125565b80601f016020809104026020016040519081016040528092919081815260200182805461034190611125565b801561038c5780601f106103635761010080835404028352916020019161038c565b820191905f5260205f20905b81548152906001019060200180831161036f57829003601f168201915b505050505090806003015f9054906101000a900460ff16905084565b5f8054906101000a900473ffffffffffffffffffffffffffffffffffffffff1673ffffffffffffffffffffffffffffffffffffffff163373ffffffffffffffffffffffffffffffffffffffff1614610435576040517f08c379a000000000000000000000000000000000000000000000000000000000815260040161042c9061119f565b60405180910390fd5b5f60018260405161044691906111f7565b9081526020016040518091039020600201805461046290611125565b9050146104a4576040517f08c379a000000000000000000000000000000000000000000000000000000000815260040161049b90611257565b60405180910390fd5b6040518060800160405280848152602001838152602001828152602001600115158152506001826040516104d891906111f7565b90815260200160405180910390205f820151815f0190816104f99190611412565b50602082015181600101908161050f9190611412565b5060408201518160020190816105259190611412565b506060820151816003015f6101000a81548160ff021916908315150217905550905050505050565b6002604051806060016040528085815260200184815260200183815250908060018154018082558091505060019003905f5260205f2090600302015f909190919091505f820151815f0190816105a39190611412565b5060208201518160010190816105b99190611412565b5060408201518160020190816105cf9190611412565b505050505050565b5f8054906101000a900473ffffffffffffffffffffffffffffffffffffffff1681565b5f60605f60018460405161060e91906111f7565b90815260200160405180910390206040518060800160405290815f8201805461063690611125565b80601f016020809104026020016040519081016040528092919081815260200182805461066290611125565b80156106ad5780601f10610684576101008083540402835291602001916106ad565b820191905f5260205f20905b81548152906001019060200180831161069057829003601f168201915b505050505081526020016001820180546106c690611125565b80601f01602080910402602001604051908101604052809291908181526020018280546106f290611125565b801561073d5780601f106107145761010080835404028352916020019161073d565b820191905f5260205f20905b81548152906001019060200180831161072057829003601f168201915b5050505050815260200160028201805461075690611125565b80601f016020809104026020016040519081016040528092919081815260200182805461078290611125565b80156107cd5780601f106107a4576101008083540402835291602001916107cd565b820191905f5260205f20905b8154815290600101906020018083116107b057829003601f168201915b50505050508152602001600382015f9054906101000a900460ff161515151581525050905080606001511561083e5760016040518060400160405280601481526020017f50726f647563742069732061757468656e746963000000000000000000000000815250925092505061087b565b5f6040518060400160405280601881526020017f50726f64756374206973206e6f742061757468656e746963000000000000000081525092509250505b915091565b5f600280549050905090565b606080606060028054905084106108d8576040517f08c379a00000000000000000000000000000000000000000000000000000000081526004016108cf9061152b565b60405180910390fd5b5f600285815481106108ed576108ec611549565b5b905f5260205f2090600302016040518060600160405290815f8201805461091390611125565b80601f016020809104026020016040519081016040528092919081815260200182805461093f90611125565b801561098a5780601f106109615761010080835404028352916020019161098a565b820191905f5260205f20905b81548152906001019060200180831161096d57829003601f168201915b505050505081526020016001820180546109a390611125565b80601f01602080910402602001604051908101604052809291908181526020018280546109cf90611125565b8015610a1a5780601f106109f157610100808354040283529160200191610a1a565b820191905f5260205f20905b8154815290600101906020018083116109fd57829003601f168201915b50505050508152602001600282018054610a3390611125565b80601f0160208091040260200160405190810160405280929190818152602001828054610a5f90611125565b8015610aaa5780601f10610a8157610100808354040283529160200191610aaa565b820191905f5260205f20905b815481529060010190602001808311610a8d57829003601f168201915b5050505050815250509050805f015181602001518260400151935093509350509193909250565b60028181548110610ae0575f80fd5b905f5260205f2090600302015f91509050805f018054610aff90611125565b80601f0160208091040260200160405190810160405280929190818152602001828054610b2b90611125565b8015610b765780601f10610b4d57610100808354040283529160200191610b76565b820191905f5260205f20905b815481529060010190602001808311610b5957829003601f168201915b505050505090806001018054610b8b90611125565b80601f0160208091040260200160405190810160405280929190818152602001828054610bb790611125565b8015610c025780601f10610bd957610100808354040283529160200191610c02565b820191905f5260205f20905b815481529060010190602001808311610be557829003601f168201915b505050505090806002018054610c1790611125565b80601f0160208091040260200160405190810160405280929190818152602001828054610c4390611125565b8015610c8e5780601f10610c6557610100808354040283529160200191610c8e565b820191905f5260205f20905b815481529060010190602001808311610c7157829003601f168201915b5050505050905083565b5f604051905090565b5f80fd5b5f80fd5b5f80fd5b5f80fd5b5f601f19601f8301169050919050565b7f4e487b71000000000000000000000000000000000000000000000000000000005f52604160045260245ffd5b610cf782610cb1565b810181811067ffffffffffffffff82111715610d1657610d15610cc1565b5b80604052505050565b5f610d28610c98565b9050610d348282610cee565b919050565b5f67ffffffffffffffff821115610d5357610d52610cc1565b5b610d5c82610cb1565b9050602081019050919050565b828183375f83830152505050565b5f610d89610d8484610d39565b610d1f565b905082815260208101848484011115610da557610da4610cad565b5b610db0848285610d69565b509392505050565b5f82601f830112610dcc57610dcb610ca9565b5b8135610ddc848260208601610d77565b91505092915050565b5f60208284031215610dfa57610df9610ca1565b5b5f82013567ffffffffffffffff811115610e1757610e16610ca5565b5b610e2384828501610db8565b91505092915050565b5f81519050919050565b5f82825260208201905092915050565b8281835e5f83830152505050565b5f610e5e82610e2c565b610e688185610e36565b9350610e78818560208601610e46565b610e8181610cb1565b840191505092915050565b5f8115159050919050565b610ea081610e8c565b82525050565b5f6080820190508181035f830152610ebe8187610e54565b90508181036020830152610ed28186610e54565b90508181036040830152610ee68185610e54565b9050610ef56060830184610e97565b95945050505050565b5f805f60608486031215610f1557610f14610ca1565b5b5f84013567ffffffffffffffff811115610f3257610f31610ca5565b5b610f3e86828701610db8565b935050602084013567ffffffffffffffff811115610f5f57610f5e610ca5565b5b610f6b86828701610db8565b925050604084013567ffffffffffffffff811115610f8c57610f8b610ca5565b5b610f9886828701610db8565b9150509250925092565b5f73ffffffffffffffffffffffffffffffffffffffff82169050919050565b5f610fcb82610fa2565b9050919050565b610fdb81610fc1565b82525050565b5f602082019050610ff45f830184610fd2565b92915050565b5f60408201905061100d5f830185610e97565b818103602083015261101f8184610e54565b90509392505050565b5f819050919050565b61103a81611028565b82525050565b5f6020820190506110535f830184611031565b92915050565b61106281611028565b811461106c575f80fd5b50565b5f8135905061107d81611059565b92915050565b5f6020828403121561109857611097610ca1565b5b5f6110a58482850161106f565b91505092915050565b5f6060820190508181035f8301526110c68186610e54565b905081810360208301526110da8185610e54565b905081810360408301526110ee8184610e54565b9050949350505050565b7f4e487b71000000000000000000000000000000000000000000000000000000005f52602260045260245ffd5b5f600282049050600182168061113c57607f821691505b60208210810361114f5761114e6110f8565b5b50919050565b7f4e6f7420617574686f72697a65640000000000000000000000000000000000005f82015250565b5f611189600e83610e36565b915061119482611155565b602082019050919050565b5f6020820190508181035f8301526111b68161117d565b9050919050565b5f81905092915050565b5f6111d182610e2c565b6111db81856111bd565b93506111eb818560208601610e46565b80840191505092915050565b5f61120282846111c7565b915081905092915050565b7f50726f6475637420616c726561647920657869737473000000000000000000005f82015250565b5f611241601683610e36565b915061124c8261120d565b602082019050919050565b5f6020820190508181035f83015261126e81611235565b9050919050565b5f819050815f5260205f209050919050565b5f6020601f8301049050919050565b5f82821b905092915050565b5f600883026112d17fffffffffffffffffffffffffffffffffffffffffffffffffffffffffffffffff82611296565b6112db8683611296565b95508019841693508086168417925050509392505050565b5f819050919050565b5f61131661131161130c84611028565b6112f3565b611028565b9050919050565b5f819050919050565b61132f836112fc565b61134361133b8261131d565b8484546112a2565b825550505050565b5f90565b61135761134b565b611362818484611326565b505050565b5b818110156113855761137a5f8261134f565b600181019050611368565b5050565b601f8211156113ca5761139b81611275565b6113a484611287565b810160208510156113b3578190505b6113c76113bf85611287565b830182611367565b50505b505050565b5f82821c905092915050565b5f6113ea5f19846008026113cf565b1980831691505092915050565b5f61140283836113db565b9150826002028217905092915050565b61141b82610e2c565b67ffffffffffffffff81111561143457611433610cc1565b5b61143e8254611125565b611449828285611389565b5f60209050601f83116001811461147a575f8415611468578287015190505b61147285826113f7565b8655506114d9565b601f19841661148886611275565b5f5b828110156114af5784890151825560018201915060208501945060208101905061148a565b868310156114cc57848901516114c8601f8916826113db565b8355505b6001600288020188555050505b505050505050565b7f496e76616c696420696e646578000000000000000000000000000000000000005f82015250565b5f611515600d83610e36565b9150611520826114e1565b602082019050919050565b5f6020820190508181035f83015261154281611509565b9050919050565b7f4e487b71000000000000000000000000000000000000000000000000000000005f52603260045260245ffdfea2646970667358221220d25c2132ccd7080c5dcb55322caa7010a867f61e21a0f16854d60786b489f69d64736f6c634300081a0033",
					"opcodes": "PUSH1 0x80 PUSH1 0x40 MSTORE CALLVALUE DUP1 ISZERO PUSH1 0xE JUMPI PUSH0 DUP1 REVERT JUMPDEST POP CALLER PUSH0 DUP1 PUSH2 0x100 EXP DUP2 SLOAD DUP2 PUSH20 0xFFFFFFFFFFFFFFFFFFFFFFFFFFFFFFFFFFFFFFFF MUL NOT AND SWAP1 DUP4 PUSH20 0xFFFFFFFFFFFFFFFFFFFFFFFFFFFFFFFFFFFFFFFF AND MUL OR SWAP1 SSTORE POP PUSH2 0x15AC DUP1 PUSH2 0x5B PUSH0 CODECOPY PUSH0 RETURN INVALID PUSH1 0x80 PUSH1 0x40 MSTORE CALLVALUE DUP1 ISZERO PUSH2 0xF JUMPI PUSH0 DUP1 REVERT JUMPDEST POP PUSH1 0x4 CALLDATASIZE LT PUSH2 0x86 JUMPI PUSH0 CALLDATALOAD PUSH1 0xE0 SHR DUP1 PUSH4 0x92EFC453 GT PUSH2 0x59 JUMPI DUP1 PUSH4 0x92EFC453 EQ PUSH2 0x113 JUMPI DUP1 PUSH4 0x960394CF EQ PUSH2 0x144 JUMPI DUP1 PUSH4 0xC9237EEF EQ PUSH2 0x162 JUMPI DUP1 PUSH4 0xD2DD015E EQ PUSH2 0x194 JUMPI PUSH2 0x86 JUMP JUMPDEST DUP1 PUSH4 0x186A423 EQ PUSH2 0x8A JUMPI DUP1 PUSH4 0xE34B00E EQ PUSH2 0xBD JUMPI DUP1 PUSH4 0x880162B1 EQ PUSH2 0xD9 JUMPI DUP1 PUSH4 0x8DA5CB5B EQ PUSH2 0xF5 JUMPI JUMPDEST PUSH0 DUP1 REVERT JUMPDEST PUSH2 0xA4 PUSH1 0x4 DUP1 CALLDATASIZE SUB DUP2 ADD SWAP1 PUSH2 0x9F SWAP2 SWAP1 PUSH2 0xDE5 JUMP JUMPDEST PUSH2 0x1C6 JUMP JUMPDEST PUSH1 0x40 MLOAD PUSH2 0xB4 SWAP5 SWAP4 SWAP3 SWAP2 SWAP1 PUSH2 0xEA6 JUMP JUMPDEST PUSH1 0x40 MLOAD DUP1 SWAP2 SUB SWAP1 RETURN JUMPDEST PUSH2 0xD7 PUSH1 0x4 DUP1 CALLDATASIZE SUB DUP2 ADD SWAP1 PUSH2 0xD2 SWAP2 SWAP1 PUSH2 0xEFE JUMP JUMPDEST PUSH2 0x3A8 JUMP JUMPDEST STOP JUMPDEST PUSH2 0xF3 PUSH1 0x4 DUP1 CALLDATASIZE SUB DUP2 ADD SWAP1 PUSH2 0xEE SWAP2 SWAP1 PUSH2 0xEFE JUMP JUMPDEST PUSH2 0x54D JUMP JUMPDEST STOP JUMPDEST PUSH2 0xFD PUSH2 0x5D7 JUMP JUMPDEST PUSH1 0x40 MLOAD PUSH2 0x10A SWAP2 SWAP1 PUSH2 0xFE1 JUMP JUMPDEST PUSH1 0x40 MLOAD DUP1 SWAP2 SUB SWAP1 RETURN JUMPDEST PUSH2 0x12D PUSH1 0x4 DUP1 CALLDATASIZE SUB DUP2 ADD SWAP1 PUSH2 0x128 SWAP2 SWAP1 PUSH2 0xDE5 JUMP JUMPDEST PUSH2 0x5FA JUMP JUMPDEST PUSH1 0x40 MLOAD PUSH2 0x13B SWAP3 SWAP2 SWAP1 PUSH2 0xFFA JUMP JUMPDEST PUSH1 0x40 MLOAD DUP1 SWAP2 SUB SWAP1 RETURN JUMPDEST PUSH2 0x14C PUSH2 0x880 JUMP JUMPDEST PUSH1 0x40 MLOAD PUSH2 0x159 SWAP2 SWAP1 PUSH2 0x1040 JUMP JUMPDEST PUSH1 0x40 MLOAD DUP1 SWAP2 SUB SWAP1 RETURN JUMPDEST PUSH2 0x17C PUSH1 0x4 DUP1 CALLDATASIZE SUB DUP2 ADD SWAP1 PUSH2 0x177 SWAP2 SWAP1 PUSH2 0x1083 JUMP JUMPDEST PUSH2 0x88C JUMP JUMPDEST PUSH1 0x40 MLOAD PUSH2 0x18B SWAP4 SWAP3 SWAP2 SWAP1 PUSH2 0x10AE JUMP JUMPDEST PUSH1 0x40 MLOAD DUP1 SWAP2 SUB SWAP1 RETURN JUMPDEST PUSH2 0x1AE PUSH1 0x4 DUP1 CALLDATASIZE SUB DUP2 ADD SWAP1 PUSH2 0x1A9 SWAP2 SWAP1 PUSH2 0x1083 JUMP JUMPDEST PUSH2 0xAD1 JUMP JUMPDEST PUSH1 0x40 MLOAD PUSH2 0x1BD SWAP4 SWAP3 SWAP2 SWAP1 PUSH2 0x10AE JUMP JUMPDEST PUSH1 0x40 MLOAD DUP1 SWAP2 SUB SWAP1 RETURN JUMPDEST PUSH1 0x1 DUP2 DUP1 MLOAD PUSH1 0x20 DUP2 ADD DUP3 ADD DUP1 MLOAD DUP5 DUP3 MSTORE PUSH1 0x20 DUP4 ADD PUSH1 0x20 DUP6 ADD KECCAK256 DUP2 DUP4 MSTORE DUP1 SWAP6 POP POP POP POP POP POP PUSH0 SWAP2 POP SWAP1 POP DUP1 PUSH0 ADD DUP1 SLOAD PUSH2 0x1FD SWAP1 PUSH2 0x1125 JUMP JUMPDEST DUP1 PUSH1 0x1F ADD PUSH1 0x20 DUP1 SWAP2 DIV MUL PUSH1 0x20 ADD PUSH1 0x40 MLOAD SWAP1 DUP2 ADD PUSH1 0x40 MSTORE DUP1 SWAP3 SWAP2 SWAP1 DUP2 DUP2 MSTORE PUSH1 0x20 ADD DUP3 DUP1 SLOAD PUSH2 0x229 SWAP1 PUSH2 0x1125 JUMP JUMPDEST DUP1 ISZERO PUSH2 0x274 JUMPI DUP1 PUSH1 0x1F LT PUSH2 0x24B JUMPI PUSH2 0x100 DUP1 DUP4 SLOAD DIV MUL DUP4 MSTORE SWAP2 PUSH1 0x20 ADD SWAP2 PUSH2 0x274 JUMP JUMPDEST DUP3 ADD SWAP2 SWAP1 PUSH0 MSTORE PUSH1 0x20 PUSH0 KECCAK256 SWAP1 JUMPDEST DUP2 SLOAD DUP2 MSTORE SWAP1 PUSH1 0x1 ADD SWAP1 PUSH1 0x20 ADD DUP1 DUP4 GT PUSH2 0x257 JUMPI DUP3 SWAP1 SUB PUSH1 0x1F AND DUP3 ADD SWAP2 JUMPDEST POP POP POP POP POP SWAP1 DUP1 PUSH1 0x1 ADD DUP1 SLOAD PUSH2 0x289 SWAP1 PUSH2 0x1125 JUMP JUMPDEST DUP1 PUSH1 0x1F ADD PUSH1 0x20 DUP1 SWAP2 DIV MUL PUSH1 0x20 ADD PUSH1 0x40 MLOAD SWAP1 DUP2 ADD PUSH1 0x40 MSTORE DUP1 SWAP3 SWAP2 SWAP1 DUP2 DUP2 MSTORE PUSH1 0x20 ADD DUP3 DUP1 SLOAD PUSH2 0x2B5 SWAP1 PUSH2 0x1125 JUMP JUMPDEST DUP1 ISZERO PUSH2 0x300 JUMPI DUP1 PUSH1 0x1F LT PUSH2 0x2D7 JUMPI PUSH2 0x100 DUP1 DUP4 SLOAD DIV MUL DUP4 MSTORE SWAP2 PUSH1 0x20 ADD SWAP2 PUSH2 0x300 JUMP JUMPDEST DUP3 ADD SWAP2 SWAP1 PUSH0 MSTORE PUSH1 0x20 PUSH0 KECCAK256 SWAP1 JUMPDEST DUP2 SLOAD DUP2 MSTORE SWAP1 PUSH1 0x1 ADD SWAP1 PUSH1 0x20 ADD DUP1 DUP4 GT PUSH2 0x2E3 JUMPI DUP3 SWAP1 SUB PUSH1 0x1F AND DUP3 ADD SWAP2 JUMPDEST POP POP POP POP POP SWAP1 DUP1 PUSH1 0x2 ADD DUP1 SLOAD PUSH2 0x315 SWAP1 PUSH2 0x1125 JUMP JUMPDEST DUP1 PUSH1 0x1F ADD PUSH1 0x20 DUP1 SWAP2 DIV MUL PUSH1 0x20 ADD PUSH1 0x40 MLOAD SWAP1 DUP2 ADD PUSH1 0x40 MSTORE DUP1 SWAP3 SWAP2 SWAP1 DUP2 DUP2 MSTORE PUSH1 0x20 ADD DUP3 DUP1 SLOAD PUSH2 0x341 SWAP1 PUSH2 0x1125 JUMP JUMPDEST DUP1 ISZERO PUSH2 0x38C JUMPI DUP1 PUSH1 0x1F LT PUSH2 0x363 JUMPI PUSH2 0x100 DUP1 DUP4 SLOAD DIV MUL DUP4 MSTORE SWAP2 PUSH1 0x20 ADD SWAP2 PUSH2 0x38C JUMP JUMPDEST DUP3 ADD SWAP2 SWAP1 PUSH0 MSTORE PUSH1 0x20 PUSH0 KECCAK256 SWAP1 JUMPDEST DUP2 SLOAD DUP2 MSTORE SWAP1 PUSH1 0x1 ADD SWAP1 PUSH1 0x20 ADD DUP1 DUP4 GT PUSH2 0x36F JUMPI DUP3 SWAP1 SUB PUSH1 0x1F AND DUP3 ADD SWAP2 JUMPDEST POP POP POP POP POP SWAP1 DUP1 PUSH1 0x3 ADD PUSH0 SWAP1 SLOAD SWAP1 PUSH2 0x100 EXP SWAP1 DIV PUSH1 0xFF AND SWAP1 POP DUP5 JUMP JUMPDEST PUSH0 DUP1 SLOAD SWAP1 PUSH2 0x100 EXP SWAP1 DIV PUSH20 0xFFFFFFFFFFFFFFFFFFFFFFFFFFFFFFFFFFFFFFFF AND PUSH20 0xFFFFFFFFFFFFFFFFFFFFFFFFFFFFFFFFFFFFFFFF AND CALLER PUSH20 0xFFFFFFFFFFFFFFFFFFFFFFFFFFFFFFFFFFFFFFFF AND EQ PUSH2 0x435 JUMPI PUSH1 0x40 MLOAD PUSH32 0x8C379A000000000000000000000000000000000000000000000000000000000 DUP2 MSTORE PUSH1 0x4 ADD PUSH2 0x42C SWAP1 PUSH2 0x119F JUMP JUMPDEST PUSH1 0x40 MLOAD DUP1 SWAP2 SUB SWAP1 REVERT JUMPDEST PUSH0 PUSH1 0x1 DUP3 PUSH1 0x40 MLOAD PUSH2 0x446 SWAP2 SWAP1 PUSH2 0x11F7 JUMP JUMPDEST SWAP1 DUP2 MSTORE PUSH1 0x20 ADD PUSH1 0x40 MLOAD DUP1 SWAP2 SUB SWAP1 KECCAK256 PUSH1 0x2 ADD DUP1 SLOAD PUSH2 0x462 SWAP1 PUSH2 0x1125 JUMP JUMPDEST SWAP1 POP EQ PUSH2 0x4A4 JUMPI PUSH1 0x40 MLOAD PUSH32 0x8C379A000000000000000000000000000000000000000000000000000000000 DUP2 MSTORE PUSH1 0x4 ADD PUSH2 0x49B SWAP1 PUSH2 0x1257 JUMP JUMPDEST PUSH1 0x40 MLOAD DUP1 SWAP2 SUB SWAP1 REVERT JUMPDEST PUSH1 0x40 MLOAD DUP1 PUSH1 0x80 ADD PUSH1 0x40 MSTORE DUP1 DUP5 DUP2 MSTORE PUSH1 0x20 ADD DUP4 DUP2 MSTORE PUSH1 0x20 ADD DUP3 DUP2 MSTORE PUSH1 0x20 ADD PUSH1 0x1 ISZERO ISZERO DUP2 MSTORE POP PUSH1 0x1 DUP3 PUSH1 0x40 MLOAD PUSH2 0x4D8 SWAP2 SWAP1 PUSH2 0x11F7 JUMP JUMPDEST SWAP1 DUP2 MSTORE PUSH1 0x20 ADD PUSH1 0x40 MLOAD DUP1 SWAP2 SUB SWAP1 KECCAK256 PUSH0 DUP3 ADD MLOAD DUP2 PUSH0 ADD SWAP1 DUP2 PUSH2 0x4F9 SWAP2 SWAP1 PUSH2 0x1412 JUMP JUMPDEST POP PUSH1 0x20 DUP3 ADD MLOAD DUP2 PUSH1 0x1 ADD SWAP1 DUP2 PUSH2 0x50F SWAP2 SWAP1 PUSH2 0x1412 JUMP JUMPDEST POP PUSH1 0x40 DUP3 ADD MLOAD DUP2 PUSH1 0x2 ADD SWAP1 DUP2 PUSH2 0x525 SWAP2 SWAP1 PUSH2 0x1412 JUMP JUMPDEST POP PUSH1 0x60 DUP3 ADD MLOAD DUP2 PUSH1 0x3 ADD PUSH0 PUSH2 0x100 EXP DUP2 SLOAD DUP2 PUSH1 0xFF MUL NOT AND SWAP1 DUP4 ISZERO ISZERO MUL OR SWAP1 SSTORE POP SWAP1 POP POP POP POP POP JUMP JUMPDEST PUSH1 0x2 PUSH1 0x40 MLOAD DUP1 PUSH1 0x60 ADD PUSH1 0x40 MSTORE DUP1 DUP6 DUP2 MSTORE PUSH1 0x20 ADD DUP5 DUP2 MSTORE PUSH1 0x20 ADD DUP4 DUP2 MSTORE POP SWAP1 DUP1 PUSH1 0x1 DUP2 SLOAD ADD DUP1 DUP3 SSTORE DUP1 SWAP2 POP POP PUSH1 0x1 SWAP1 SUB SWAP1 PUSH0 MSTORE PUSH1 0x20 PUSH0 KECCAK256 SWAP1 PUSH1 0x3 MUL ADD PUSH0 SWAP1 SWAP2 SWAP1 SWAP2 SWAP1 SWAP2 POP PUSH0 DUP3 ADD MLOAD DUP2 PUSH0 ADD SWAP1 DUP2 PUSH2 0x5A3 SWAP2 SWAP1 PUSH2 0x1412 JUMP JUMPDEST POP PUSH1 0x20 DUP3 ADD MLOAD DUP2 PUSH1 0x1 ADD SWAP1 DUP2 PUSH2 0x5B9 SWAP2 SWAP1 PUSH2 0x1412 JUMP JUMPDEST POP PUSH1 0x40 DUP3 ADD MLOAD DUP2 PUSH1 0x2 ADD SWAP1 DUP2 PUSH2 0x5CF SWAP2 SWAP1 PUSH2 0x1412 JUMP JUMPDEST POP POP POP POP POP POP JUMP JUMPDEST PUSH0 DUP1 SLOAD SWAP1 PUSH2 0x100 EXP SWAP1 DIV PUSH20 0xFFFFFFFFFFFFFFFFFFFFFFFFFFFFFFFFFFFFFFFF AND DUP2 JUMP JUMPDEST PUSH0 PUSH1 0x60 PUSH0 PUSH1 0x1 DUP5 PUSH1 0x40 MLOAD PUSH2 0x60E SWAP2 SWAP1 PUSH2 0x11F7 JUMP JUMPDEST SWAP1 DUP2 MSTORE PUSH1 0x20 ADD PUSH1 0x40 MLOAD DUP1 SWAP2 SUB SWAP1 KECCAK256 PUSH1 0x40 MLOAD DUP1 PUSH1 0x80 ADD PUSH1 0x40 MSTORE SWAP1 DUP2 PUSH0 DUP3 ADD DUP1 SLOAD PUSH2 0x636 SWAP1 PUSH2 0x1125 JUMP JUMPDEST DUP1 PUSH1 0x1F ADD PUSH1 0x20 DUP1 SWAP2 DIV MUL PUSH1 0x20 ADD PUSH1 0x40 MLOAD SWAP1 DUP2 ADD PUSH1 0x40 MSTORE DUP1 SWAP3 SWAP2 SWAP1 DUP2 DUP2 MSTORE PUSH1 0x20 ADD DUP3 DUP1 SLOAD PUSH2 0x662 SWAP1 PUSH2 0x1125 JUMP JUMPDEST DUP1 ISZERO PUSH2 0x6AD JUMPI DUP1 PUSH1 0x1F LT PUSH2 0x684 JUMPI PUSH2 0x100 DUP1 DUP4 SLOAD DIV MUL DUP4 MSTORE SWAP2 PUSH1 0x20 ADD SWAP2 PUSH2 0x6AD JUMP JUMPDEST DUP3 ADD SWAP2 SWAP1 PUSH0 MSTORE PUSH1 0x20 PUSH0 KECCAK256 SWAP1 JUMPDEST DUP2 SLOAD DUP2 MSTORE SWAP1 PUSH1 0x1 ADD SWAP1 PUSH1 0x20 ADD DUP1 DUP4 GT PUSH2 0x690 JUMPI DUP3 SWAP1 SUB PUSH1 0x1F AND DUP3 ADD SWAP2 JUMPDEST POP POP POP POP POP DUP2 MSTORE PUSH1 0x20 ADD PUSH1 0x1 DUP3 ADD DUP1 SLOAD PUSH2 0x6C6 SWAP1 PUSH2 0x1125 JUMP JUMPDEST DUP1 PUSH1 0x1F ADD PUSH1 0x20 DUP1 SWAP2 DIV MUL PUSH1 0x20 ADD PUSH1 0x40 MLOAD SWAP1 DUP2 ADD PUSH1 0x40 MSTORE DUP1 SWAP3 SWAP2 SWAP1 DUP2 DUP2 MSTORE PUSH1 0x20 ADD DUP3 DUP1 SLOAD PUSH2 0x6F2 SWAP1 PUSH2 0x1125 JUMP JUMPDEST DUP1 ISZERO PUSH2 0x73D JUMPI DUP1 PUSH1 0x1F LT PUSH2 0x714 JUMPI PUSH2 0x100 DUP1 DUP4 SLOAD DIV MUL DUP4 MSTORE SWAP2 PUSH1 0x20 ADD SWAP2 PUSH2 0x73D JUMP JUMPDEST DUP3 ADD SWAP2 SWAP1 PUSH0 MSTORE PUSH1 0x20 PUSH0 KECCAK256 SWAP1 JUMPDEST DUP2 SLOAD DUP2 MSTORE SWAP1 PUSH1 0x1 ADD SWAP1 PUSH1 0x20 ADD DUP1 DUP4 GT PUSH2 0x720 JUMPI DUP3 SWAP1 SUB PUSH1 0x1F AND DUP3 ADD SWAP2 JUMPDEST POP POP POP POP POP DUP2 MSTORE PUSH1 0x20 ADD PUSH1 0x2 DUP3 ADD DUP1 SLOAD PUSH2 0x756 SWAP1 PUSH2 0x1125 JUMP JUMPDEST DUP1 PUSH1 0x1F ADD PUSH1 0x20 DUP1 SWAP2 DIV MUL PUSH1 0x20 ADD PUSH1 0x40 MLOAD SWAP1 DUP2 ADD PUSH1 0x40 MSTORE DUP1 SWAP3 SWAP2 SWAP1 DUP2 DUP2 MSTORE PUSH1 0x20 ADD DUP3 DUP1 SLOAD PUSH2 0x782 SWAP1 PUSH2 0x1125 JUMP JUMPDEST DUP1 ISZERO PUSH2 0x7CD JUMPI DUP1 PUSH1 0x1F LT PUSH2 0x7A4 JUMPI PUSH2 0x100 DUP1 DUP4 SLOAD DIV MUL DUP4 MSTORE SWAP2 PUSH1 0x20 ADD SWAP2 PUSH2 0x7CD JUMP JUMPDEST DUP3 ADD SWAP2 SWAP1 PUSH0 MSTORE PUSH1 0x20 PUSH0 KECCAK256 SWAP1 JUMPDEST DUP2 SLOAD DUP2 MSTORE SWAP1 PUSH1 0x1 ADD SWAP1 PUSH1 0x20 ADD DUP1 DUP4 GT PUSH2 0x7B0 JUMPI DUP3 SWAP1 SUB PUSH1 0x1F AND DUP3 ADD SWAP2 JUMPDEST POP POP POP POP POP DUP2 MSTORE PUSH1 0x20 ADD PUSH1 0x3 DUP3 ADD PUSH0 SWAP1 SLOAD SWAP1 PUSH2 0x100 EXP SWAP1 DIV PUSH1 0xFF AND ISZERO ISZERO ISZERO ISZERO DUP2 MSTORE POP POP SWAP1 POP DUP1 PUSH1 0x60 ADD MLOAD ISZERO PUSH2 0x83E JUMPI PUSH1 0x1 PUSH1 0x40 MLOAD DUP1 PUSH1 0x40 ADD PUSH1 0x40 MSTORE DUP1 PUSH1 0x14 DUP2 MSTORE PUSH1 0x20 ADD PUSH32 0x50726F647563742069732061757468656E746963000000000000000000000000 DUP2 MSTORE POP SWAP3 POP SWAP3 POP POP PUSH2 0x87B JUMP JUMPDEST PUSH0 PUSH1 0x40 MLOAD DUP1 PUSH1 0x40 ADD PUSH1 0x40 MSTORE DUP1 PUSH1 0x18 DUP2 MSTORE PUSH1 0x20 ADD PUSH32 0x50726F64756374206973206E6F742061757468656E7469630000000000000000 DUP2 MSTORE POP SWAP3 POP SWAP3 POP POP JUMPDEST SWAP2 POP SWAP2 JUMP JUMPDEST PUSH0 PUSH1 0x2 DUP1 SLOAD SWAP1 POP SWAP1 POP SWAP1 JUMP JUMPDEST PUSH1 0x60 DUP1 PUSH1 0x60 PUSH1 0x2 DUP1 SLOAD SWAP1 POP DUP5 LT PUSH2 0x8D8 JUMPI PUSH1 0x40 MLOAD PUSH32 0x8C379A000000000000000000000000000000000000000000000000000000000 DUP2 MSTORE PUSH1 0x4 ADD PUSH2 0x8CF SWAP1 PUSH2 0x152B JUMP JUMPDEST PUSH1 0x40 MLOAD DUP1 SWAP2 SUB SWAP1 REVERT JUMPDEST PUSH0 PUSH1 0x2 DUP6 DUP2 SLOAD DUP2 LT PUSH2 0x8ED JUMPI PUSH2 0x8EC PUSH2 0x1549 JUMP JUMPDEST JUMPDEST SWAP1 PUSH0 MSTORE PUSH1 0x20 PUSH0 KECCAK256 SWAP1 PUSH1 0x3 MUL ADD PUSH1 0x40 MLOAD DUP1 PUSH1 0x60 ADD PUSH1 0x40 MSTORE SWAP1 DUP2 PUSH0 DUP3 ADD DUP1 SLOAD PUSH2 0x913 SWAP1 PUSH2 0x1125 JUMP JUMPDEST DUP1 PUSH1 0x1F ADD PUSH1 0x20 DUP1 SWAP2 DIV MUL PUSH1 0x20 ADD PUSH1 0x40 MLOAD SWAP1 DUP2 ADD PUSH1 0x40 MSTORE DUP1 SWAP3 SWAP2 SWAP1 DUP2 DUP2 MSTORE PUSH1 0x20 ADD DUP3 DUP1 SLOAD PUSH2 0x93F SWAP1 PUSH2 0x1125 JUMP JUMPDEST DUP1 ISZERO PUSH2 0x98A JUMPI DUP1 PUSH1 0x1F LT PUSH2 0x961 JUMPI PUSH2 0x100 DUP1 DUP4 SLOAD DIV MUL DUP4 MSTORE SWAP2 PUSH1 0x20 ADD SWAP2 PUSH2 0x98A JUMP JUMPDEST DUP3 ADD SWAP2 SWAP1 PUSH0 MSTORE PUSH1 0x20 PUSH0 KECCAK256 SWAP1 JUMPDEST DUP2 SLOAD DUP2 MSTORE SWAP1 PUSH1 0x1 ADD SWAP1 PUSH1 0x20 ADD DUP1 DUP4 GT PUSH2 0x96D JUMPI DUP3 SWAP1 SUB PUSH1 0x1F AND DUP3 ADD SWAP2 JUMPDEST POP POP POP POP POP DUP2 MSTORE PUSH1 0x20 ADD PUSH1 0x1 DUP3 ADD DUP1 SLOAD PUSH2 0x9A3 SWAP1 PUSH2 0x1125 JUMP JUMPDEST DUP1 PUSH1 0x1F ADD PUSH1 0x20 DUP1 SWAP2 DIV MUL PUSH1 0x20 ADD PUSH1 0x40 MLOAD SWAP1 DUP2 ADD PUSH1 0x40 MSTORE DUP1 SWAP3 SWAP2 SWAP1 DUP2 DUP2 MSTORE PUSH1 0x20 ADD DUP3 DUP1 SLOAD PUSH2 0x9CF SWAP1 PUSH2 0x1125 JUMP JUMPDEST DUP1 ISZERO PUSH2 0xA1A JUMPI DUP1 PUSH1 0x1F LT PUSH2 0x9F1 JUMPI PUSH2 0x100 DUP1 DUP4 SLOAD DIV MUL DUP4 MSTORE SWAP2 PUSH1 0x20 ADD SWAP2 PUSH2 0xA1A JUMP JUMPDEST DUP3 ADD SWAP2 SWAP1 PUSH0 MSTORE PUSH1 0x20 PUSH0 KECCAK256 SWAP1 JUMPDEST DUP2 SLOAD DUP2 MSTORE SWAP1 PUSH1 0x1 ADD SWAP1 PUSH1 0x20 ADD DUP1 DUP4 GT PUSH2 0x9FD JUMPI DUP3 SWAP1 SUB PUSH1 0x1F AND DUP3 ADD SWAP2 JUMPDEST POP POP POP POP POP DUP2 MSTORE PUSH1 0x20 ADD PUSH1 0x2 DUP3 ADD DUP1 SLOAD PUSH2 0xA33 SWAP1 PUSH2 0x1125 JUMP JUMPDEST DUP1 PUSH1 0x1F ADD PUSH1 0x20 DUP1 SWAP2 DIV MUL PUSH1 0x20 ADD PUSH1 0x40 MLOAD SWAP1 DUP2 ADD PUSH1 0x40 MSTORE DUP1 SWAP3 SWAP2 SWAP1 DUP2 DUP2 MSTORE PUSH1 0x20 ADD DUP3 DUP1 SLOAD PUSH2 0xA5F SWAP1 PUSH2 0x1125 JUMP JUMPDEST DUP1 ISZERO PUSH2 0xAAA JUMPI DUP1 PUSH1 0x1F LT PUSH2 0xA81 JUMPI PUSH2 0x100 DUP1 DUP4 SLOAD DIV MUL DUP4 MSTORE SWAP2 PUSH1 0x20 ADD SWAP2 PUSH2 0xAAA JUMP JUMPDEST DUP3 ADD SWAP2 SWAP1 PUSH0 MSTORE PUSH1 0x20 PUSH0 KECCAK256 SWAP1 JUMPDEST DUP2 SLOAD DUP2 MSTORE SWAP1 PUSH1 0x1 ADD SWAP1 PUSH1 0x20 ADD DUP1 DUP4 GT PUSH2 0xA8D JUMPI DUP3 SWAP1 SUB PUSH1 0x1F AND DUP3 ADD SWAP2 JUMPDEST POP POP POP POP POP DUP2 MSTORE POP POP SWAP1 POP DUP1 PUSH0 ADD MLOAD DUP2 PUSH1 0x20 ADD MLOAD DUP3 PUSH1 0x40 ADD MLOAD SWAP4 POP SWAP4 POP SWAP4 POP POP SWAP2 SWAP4 SWAP1 SWAP3 POP JUMP JUMPDEST PUSH1 0x2 DUP2 DUP2 SLOAD DUP2 LT PUSH2 0xAE0 JUMPI PUSH0 DUP1 REVERT JUMPDEST SWAP1 PUSH0 MSTORE PUSH1 0x20 PUSH0 KECCAK256 SWAP1 PUSH1 0x3 MUL ADD PUSH0 SWAP2 POP SWAP1 POP DUP1 PUSH0 ADD DUP1 SLOAD PUSH2 0xAFF SWAP1 PUSH2 0x1125 JUMP JUMPDEST DUP1 PUSH1 0x1F ADD PUSH1 0x20 DUP1 SWAP2 DIV MUL PUSH1 0x20 ADD PUSH1 0x40 MLOAD SWAP1 DUP2 ADD PUSH1 0x40 MSTORE DUP1 SWAP3 SWAP2 SWAP1 DUP2 DUP2 MSTORE PUSH1 0x20 ADD DUP3 DUP1 SLOAD PUSH2 0xB2B SWAP1 PUSH2 0x1125 JUMP JUMPDEST DUP1 ISZERO PUSH2 0xB76 JUMPI DUP1 PUSH1 0x1F LT PUSH2 0xB4D JUMPI PUSH2 0x100 DUP1 DUP4 SLOAD DIV MUL DUP4 MSTORE SWAP2 PUSH1 0x20 ADD SWAP2 PUSH2 0xB76 JUMP JUMPDEST DUP3 ADD SWAP2 SWAP1 PUSH0 MSTORE PUSH1 0x20 PUSH0 KECCAK256 SWAP1 JUMPDEST DUP2 SLOAD DUP2 MSTORE SWAP1 PUSH1 0x1 ADD SWAP1 PUSH1 0x20 ADD DUP1 DUP4 GT PUSH2 0xB59 JUMPI DUP3 SWAP1 SUB PUSH1 0x1F AND DUP3 ADD SWAP2 JUMPDEST POP POP POP POP POP SWAP1 DUP1 PUSH1 0x1 ADD DUP1 SLOAD PUSH2 0xB8B SWAP1 PUSH2 0x1125 JUMP JUMPDEST DUP1 PUSH1 0x1F ADD PUSH1 0x20 DUP1 SWAP2 DIV MUL PUSH1 0x20 ADD PUSH1 0x40 MLOAD SWAP1 DUP2 ADD PUSH1 0x40 MSTORE DUP1 SWAP3 SWAP2 SWAP1 DUP2 DUP2 MSTORE PUSH1 0x20 ADD DUP3 DUP1 SLOAD PUSH2 0xBB7 SWAP1 PUSH2 0x1125 JUMP JUMPDEST DUP1 ISZERO PUSH2 0xC02 JUMPI DUP1 PUSH1 0x1F LT PUSH2 0xBD9 JUMPI PUSH2 0x100 DUP1 DUP4 SLOAD DIV MUL DUP4 MSTORE SWAP2 PUSH1 0x20 ADD SWAP2 PUSH2 0xC02 JUMP JUMPDEST DUP3 ADD SWAP2 SWAP1 PUSH0 MSTORE PUSH1 0x20 PUSH0 KECCAK256 SWAP1 JUMPDEST DUP2 SLOAD DUP2 MSTORE SWAP1 PUSH1 0x1 ADD SWAP1 PUSH1 0x20 ADD DUP1 DUP4 GT PUSH2 0xBE5 JUMPI DUP3 SWAP1 SUB PUSH1 0x1F AND DUP3 ADD SWAP2 JUMPDEST POP POP POP POP POP SWAP1 DUP1 PUSH1 0x2 ADD DUP1 SLOAD PUSH2 0xC17 SWAP1 PUSH2 0x1125 JUMP JUMPDEST DUP1 PUSH1 0x1F ADD PUSH1 0x20 DUP1 SWAP2 DIV MUL PUSH1 0x20 ADD PUSH1 0x40 MLOAD SWAP1 DUP2 ADD PUSH1 0x40 MSTORE DUP1 SWAP3 SWAP2 SWAP1 DUP2 DUP2 MSTORE PUSH1 0x20 ADD DUP3 DUP1 SLOAD PUSH2 0xC43 SWAP1 PUSH2 0x1125 JUMP JUMPDEST DUP1 ISZERO PUSH2 0xC8E JUMPI DUP1 PUSH1 0x1F LT PUSH2 0xC65 JUMPI PUSH2 0x100 DUP1 DUP4 SLOAD DIV MUL DUP4 MSTORE SWAP2 PUSH1 0x20 ADD SWAP2 PUSH2 0xC8E JUMP JUMPDEST DUP3 ADD SWAP2 SWAP1 PUSH0 MSTORE PUSH1 0x20 PUSH0 KECCAK256 SWAP1 JUMPDEST DUP2 SLOAD DUP2 MSTORE SWAP1 PUSH1 0x1 ADD SWAP1 PUSH1 0x20 ADD DUP1 DUP4 GT PUSH2 0xC71 JUMPI DUP3 SWAP1 SUB PUSH1 0x1F AND DUP3 ADD SWAP2 JUMPDEST POP POP POP POP POP SWAP1 POP DUP4 JUMP JUMPDEST PUSH0 PUSH1 0x40 MLOAD SWAP1 POP SWAP1 JUMP JUMPDEST PUSH0 DUP1 REVERT JUMPDEST PUSH0 DUP1 REVERT JUMPDEST PUSH0 DUP1 REVERT JUMPDEST PUSH0 DUP1 REVERT JUMPDEST PUSH0 PUSH1 0x1F NOT PUSH1 0x1F DUP4 ADD AND SWAP1 POP SWAP2 SWAP1 POP JUMP JUMPDEST PUSH32 0x4E487B7100000000000000000000000000000000000000000000000000000000 PUSH0 MSTORE PUSH1 0x41 PUSH1 0x4 MSTORE PUSH1 0x24 PUSH0 REVERT JUMPDEST PUSH2 0xCF7 DUP3 PUSH2 0xCB1 JUMP JUMPDEST DUP2 ADD DUP2 DUP2 LT PUSH8 0xFFFFFFFFFFFFFFFF DUP3 GT OR ISZERO PUSH2 0xD16 JUMPI PUSH2 0xD15 PUSH2 0xCC1 JUMP JUMPDEST JUMPDEST DUP1 PUSH1 0x40 MSTORE POP POP POP JUMP JUMPDEST PUSH0 PUSH2 0xD28 PUSH2 0xC98 JUMP JUMPDEST SWAP1 POP PUSH2 0xD34 DUP3 DUP3 PUSH2 0xCEE JUMP JUMPDEST SWAP2 SWAP1 POP JUMP JUMPDEST PUSH0 PUSH8 0xFFFFFFFFFFFFFFFF DUP3 GT ISZERO PUSH2 0xD53 JUMPI PUSH2 0xD52 PUSH2 0xCC1 JUMP JUMPDEST JUMPDEST PUSH2 0xD5C DUP3 PUSH2 0xCB1 JUMP JUMPDEST SWAP1 POP PUSH1 0x20 DUP2 ADD SWAP1 POP SWAP2 SWAP1 POP JUMP JUMPDEST DUP3 DUP2 DUP4 CALLDATACOPY PUSH0 DUP4 DUP4 ADD MSTORE POP POP POP JUMP JUMPDEST PUSH0 PUSH2 0xD89 PUSH2 0xD84 DUP5 PUSH2 0xD39 JUMP JUMPDEST PUSH2 0xD1F JUMP JUMPDEST SWAP1 POP DUP3 DUP2 MSTORE PUSH1 0x20 DUP2 ADD DUP5 DUP5 DUP5 ADD GT ISZERO PUSH2 0xDA5 JUMPI PUSH2 0xDA4 PUSH2 0xCAD JUMP JUMPDEST JUMPDEST PUSH2 0xDB0 DUP5 DUP3 DUP6 PUSH2 0xD69 JUMP JUMPDEST POP SWAP4 SWAP3 POP POP POP JUMP JUMPDEST PUSH0 DUP3 PUSH1 0x1F DUP4 ADD SLT PUSH2 0xDCC JUMPI PUSH2 0xDCB PUSH2 0xCA9 JUMP JUMPDEST JUMPDEST DUP2 CALLDATALOAD PUSH2 0xDDC DUP5 DUP3 PUSH1 0x20 DUP7 ADD PUSH2 0xD77 JUMP JUMPDEST SWAP2 POP POP SWAP3 SWAP2 POP POP JUMP JUMPDEST PUSH0 PUSH1 0x20 DUP3 DUP5 SUB SLT ISZERO PUSH2 0xDFA JUMPI PUSH2 0xDF9 PUSH2 0xCA1 JUMP JUMPDEST JUMPDEST PUSH0 DUP3 ADD CALLDATALOAD PUSH8 0xFFFFFFFFFFFFFFFF DUP2 GT ISZERO PUSH2 0xE17 JUMPI PUSH2 0xE16 PUSH2 0xCA5 JUMP JUMPDEST JUMPDEST PUSH2 0xE23 DUP5 DUP3 DUP6 ADD PUSH2 0xDB8 JUMP JUMPDEST SWAP2 POP POP SWAP3 SWAP2 POP POP JUMP JUMPDEST PUSH0 DUP2 MLOAD SWAP1 POP SWAP2 SWAP1 POP JUMP JUMPDEST PUSH0 DUP3 DUP3 MSTORE PUSH1 0x20 DUP3 ADD SWAP1 POP SWAP3 SWAP2 POP POP JUMP JUMPDEST DUP3 DUP2 DUP4 MCOPY PUSH0 DUP4 DUP4 ADD MSTORE POP POP POP JUMP JUMPDEST PUSH0 PUSH2 0xE5E DUP3 PUSH2 0xE2C JUMP JUMPDEST PUSH2 0xE68 DUP2 DUP6 PUSH2 0xE36 JUMP JUMPDEST SWAP4 POP PUSH2 0xE78 DUP2 DUP6 PUSH1 0x20 DUP7 ADD PUSH2 0xE46 JUMP JUMPDEST PUSH2 0xE81 DUP2 PUSH2 0xCB1 JUMP JUMPDEST DUP5 ADD SWAP2 POP POP SWAP3 SWAP2 POP POP JUMP JUMPDEST PUSH0 DUP2 ISZERO ISZERO SWAP1 POP SWAP2 SWAP1 POP JUMP JUMPDEST PUSH2 0xEA0 DUP2 PUSH2 0xE8C JUMP JUMPDEST DUP3 MSTORE POP POP JUMP JUMPDEST PUSH0 PUSH1 0x80 DUP3 ADD SWAP1 POP DUP2 DUP2 SUB PUSH0 DUP4 ADD MSTORE PUSH2 0xEBE DUP2 DUP8 PUSH2 0xE54 JUMP JUMPDEST SWAP1 POP DUP2 DUP2 SUB PUSH1 0x20 DUP4 ADD MSTORE PUSH2 0xED2 DUP2 DUP7 PUSH2 0xE54 JUMP JUMPDEST SWAP1 POP DUP2 DUP2 SUB PUSH1 0x40 DUP4 ADD MSTORE PUSH2 0xEE6 DUP2 DUP6 PUSH2 0xE54 JUMP JUMPDEST SWAP1 POP PUSH2 0xEF5 PUSH1 0x60 DUP4 ADD DUP5 PUSH2 0xE97 JUMP JUMPDEST SWAP6 SWAP5 POP POP POP POP POP JUMP JUMPDEST PUSH0 DUP1 PUSH0 PUSH1 0x60 DUP5 DUP7 SUB SLT ISZERO PUSH2 0xF15 JUMPI PUSH2 0xF14 PUSH2 0xCA1 JUMP JUMPDEST JUMPDEST PUSH0 DUP5 ADD CALLDATALOAD PUSH8 0xFFFFFFFFFFFFFFFF DUP2 GT ISZERO PUSH2 0xF32 JUMPI PUSH2 0xF31 PUSH2 0xCA5 JUMP JUMPDEST JUMPDEST PUSH2 0xF3E DUP7 DUP3 DUP8 ADD PUSH2 0xDB8 JUMP JUMPDEST SWAP4 POP POP PUSH1 0x20 DUP5 ADD CALLDATALOAD PUSH8 0xFFFFFFFFFFFFFFFF DUP2 GT ISZERO PUSH2 0xF5F JUMPI PUSH2 0xF5E PUSH2 0xCA5 JUMP JUMPDEST JUMPDEST PUSH2 0xF6B DUP7 DUP3 DUP8 ADD PUSH2 0xDB8 JUMP JUMPDEST SWAP3 POP POP PUSH1 0x40 DUP5 ADD CALLDATALOAD PUSH8 0xFFFFFFFFFFFFFFFF DUP2 GT ISZERO PUSH2 0xF8C JUMPI PUSH2 0xF8B PUSH2 0xCA5 JUMP JUMPDEST JUMPDEST PUSH2 0xF98 DUP7 DUP3 DUP8 ADD PUSH2 0xDB8 JUMP JUMPDEST SWAP2 POP POP SWAP3 POP SWAP3 POP SWAP3 JUMP JUMPDEST PUSH0 PUSH20 0xFFFFFFFFFFFFFFFFFFFFFFFFFFFFFFFFFFFFFFFF DUP3 AND SWAP1 POP SWAP2 SWAP1 POP JUMP JUMPDEST PUSH0 PUSH2 0xFCB DUP3 PUSH2 0xFA2 JUMP JUMPDEST SWAP1 POP SWAP2 SWAP1 POP JUMP JUMPDEST PUSH2 0xFDB DUP2 PUSH2 0xFC1 JUMP JUMPDEST DUP3 MSTORE POP POP JUMP JUMPDEST PUSH0 PUSH1 0x20 DUP3 ADD SWAP1 POP PUSH2 0xFF4 PUSH0 DUP4 ADD DUP5 PUSH2 0xFD2 JUMP JUMPDEST SWAP3 SWAP2 POP POP JUMP JUMPDEST PUSH0 PUSH1 0x40 DUP3 ADD SWAP1 POP PUSH2 0x100D PUSH0 DUP4 ADD DUP6 PUSH2 0xE97 JUMP JUMPDEST DUP2 DUP2 SUB PUSH1 0x20 DUP4 ADD MSTORE PUSH2 0x101F DUP2 DUP5 PUSH2 0xE54 JUMP JUMPDEST SWAP1 POP SWAP4 SWAP3 POP POP POP JUMP JUMPDEST PUSH0 DUP2 SWAP1 POP SWAP2 SWAP1 POP JUMP JUMPDEST PUSH2 0x103A DUP2 PUSH2 0x1028 JUMP JUMPDEST DUP3 MSTORE POP POP JUMP JUMPDEST PUSH0 PUSH1 0x20 DUP3 ADD SWAP1 POP PUSH2 0x1053 PUSH0 DUP4 ADD DUP5 PUSH2 0x1031 JUMP JUMPDEST SWAP3 SWAP2 POP POP JUMP JUMPDEST PUSH2 0x1062 DUP2 PUSH2 0x1028 JUMP JUMPDEST DUP2 EQ PUSH2 0x106C JUMPI PUSH0 DUP1 REVERT JUMPDEST POP JUMP JUMPDEST PUSH0 DUP2 CALLDATALOAD SWAP1 POP PUSH2 0x107D DUP2 PUSH2 0x1059 JUMP JUMPDEST SWAP3 SWAP2 POP POP JUMP JUMPDEST PUSH0 PUSH1 0x20 DUP3 DUP5 SUB SLT ISZERO PUSH2 0x1098 JUMPI PUSH2 0x1097 PUSH2 0xCA1 JUMP JUMPDEST JUMPDEST PUSH0 PUSH2 0x10A5 DUP5 DUP3 DUP6 ADD PUSH2 0x106F JUMP JUMPDEST SWAP2 POP POP SWAP3 SWAP2 POP POP JUMP JUMPDEST PUSH0 PUSH1 0x60 DUP3 ADD SWAP1 POP DUP2 DUP2 SUB PUSH0 DUP4 ADD MSTORE PUSH2 0x10C6 DUP2 DUP7 PUSH2 0xE54 JUMP JUMPDEST SWAP1 POP DUP2 DUP2 SUB PUSH1 0x20 DUP4 ADD MSTORE PUSH2 0x10DA DUP2 DUP6 PUSH2 0xE54 JUMP JUMPDEST SWAP1 POP DUP2 DUP2 SUB PUSH1 0x40 DUP4 ADD MSTORE PUSH2 0x10EE DUP2 DUP5 PUSH2 0xE54 JUMP JUMPDEST SWAP1 POP SWAP5 SWAP4 POP POP POP POP JUMP JUMPDEST PUSH32 0x4E487B7100000000000000000000000000000000000000000000000000000000 PUSH0 MSTORE PUSH1 0x22 PUSH1 0x4 MSTORE PUSH1 0x24 PUSH0 REVERT JUMPDEST PUSH0 PUSH1 0x2 DUP3 DIV SWAP1 POP PUSH1 0x1 DUP3 AND DUP1 PUSH2 0x113C JUMPI PUSH1 0x7F DUP3 AND SWAP2 POP JUMPDEST PUSH1 0x20 DUP3 LT DUP2 SUB PUSH2 0x114F JUMPI PUSH2 0x114E PUSH2 0x10F8 JUMP JUMPDEST JUMPDEST POP SWAP2 SWAP1 POP JUMP JUMPDEST PUSH32 0x4E6F7420617574686F72697A6564000000000000000000000000000000000000 PUSH0 DUP3 ADD MSTORE POP JUMP JUMPDEST PUSH0 PUSH2 0x1189 PUSH1 0xE DUP4 PUSH2 0xE36 JUMP JUMPDEST SWAP2 POP PUSH2 0x1194 DUP3 PUSH2 0x1155 JUMP JUMPDEST PUSH1 0x20 DUP3 ADD SWAP1 POP SWAP2 SWAP1 POP JUMP JUMPDEST PUSH0 PUSH1 0x20 DUP3 ADD SWAP1 POP DUP2 DUP2 SUB PUSH0 DUP4 ADD MSTORE PUSH2 0x11B6 DUP2 PUSH2 0x117D JUMP JUMPDEST SWAP1 POP SWAP2 SWAP1 POP JUMP JUMPDEST PUSH0 DUP2 SWAP1 POP SWAP3 SWAP2 POP POP JUMP JUMPDEST PUSH0 PUSH2 0x11D1 DUP3 PUSH2 0xE2C JUMP JUMPDEST PUSH2 0x11DB DUP2 DUP6 PUSH2 0x11BD JUMP JUMPDEST SWAP4 POP PUSH2 0x11EB DUP2 DUP6 PUSH1 0x20 DUP7 ADD PUSH2 0xE46 JUMP JUMPDEST DUP1 DUP5 ADD SWAP2 POP POP SWAP3 SWAP2 POP POP JUMP JUMPDEST PUSH0 PUSH2 0x1202 DUP3 DUP5 PUSH2 0x11C7 JUMP JUMPDEST SWAP2 POP DUP2 SWAP1 POP SWAP3 SWAP2 POP POP JUMP JUMPDEST PUSH32 0x50726F6475637420616C72656164792065786973747300000000000000000000 PUSH0 DUP3 ADD MSTORE POP JUMP JUMPDEST PUSH0 PUSH2 0x1241 PUSH1 0x16 DUP4 PUSH2 0xE36 JUMP JUMPDEST SWAP2 POP PUSH2 0x124C DUP3 PUSH2 0x120D JUMP JUMPDEST PUSH1 0x20 DUP3 ADD SWAP1 POP SWAP2 SWAP1 POP JUMP JUMPDEST PUSH0 PUSH1 0x20 DUP3 ADD SWAP1 POP DUP2 DUP2 SUB PUSH0 DUP4 ADD MSTORE PUSH2 0x126E DUP2 PUSH2 0x1235 JUMP JUMPDEST SWAP1 POP SWAP2 SWAP1 POP JUMP JUMPDEST PUSH0 DUP2 SWAP1 POP DUP2 PUSH0 MSTORE PUSH1 0x20 PUSH0 KECCAK256 SWAP1 POP SWAP2 SWAP1 POP JUMP JUMPDEST PUSH0 PUSH1 0x20 PUSH1 0x1F DUP4 ADD DIV SWAP1 POP SWAP2 SWAP1 POP JUMP JUMPDEST PUSH0 DUP3 DUP3 SHL SWAP1 POP SWAP3 SWAP2 POP POP JUMP JUMPDEST PUSH0 PUSH1 0x8 DUP4 MUL PUSH2 0x12D1 PUSH32 0xFFFFFFFFFFFFFFFFFFFFFFFFFFFFFFFFFFFFFFFFFFFFFFFFFFFFFFFFFFFFFFFF DUP3 PUSH2 0x1296 JUMP JUMPDEST PUSH2 0x12DB DUP7 DUP4 PUSH2 0x1296 JUMP JUMPDEST SWAP6 POP DUP1 NOT DUP5 AND SWAP4 POP DUP1 DUP7 AND DUP5 OR SWAP3 POP POP POP SWAP4 SWAP3 POP POP POP JUMP JUMPDEST PUSH0 DUP2 SWAP1 POP SWAP2 SWAP1 POP JUMP JUMPDEST PUSH0 PUSH2 0x1316 PUSH2 0x1311 PUSH2 0x130C DUP5 PUSH2 0x1028 JUMP JUMPDEST PUSH2 0x12F3 JUMP JUMPDEST PUSH2 0x1028 JUMP JUMPDEST SWAP1 POP SWAP2 SWAP1 POP JUMP JUMPDEST PUSH0 DUP2 SWAP1 POP SWAP2 SWAP1 POP JUMP JUMPDEST PUSH2 0x132F DUP4 PUSH2 0x12FC JUMP JUMPDEST PUSH2 0x1343 PUSH2 0x133B DUP3 PUSH2 0x131D JUMP JUMPDEST DUP5 DUP5 SLOAD PUSH2 0x12A2 JUMP JUMPDEST DUP3 SSTORE POP POP POP POP JUMP JUMPDEST PUSH0 SWAP1 JUMP JUMPDEST PUSH2 0x1357 PUSH2 0x134B JUMP JUMPDEST PUSH2 0x1362 DUP2 DUP5 DUP5 PUSH2 0x1326 JUMP JUMPDEST POP POP POP JUMP JUMPDEST JUMPDEST DUP2 DUP2 LT ISZERO PUSH2 0x1385 JUMPI PUSH2 0x137A PUSH0 DUP3 PUSH2 0x134F JUMP JUMPDEST PUSH1 0x1 DUP2 ADD SWAP1 POP PUSH2 0x1368 JUMP JUMPDEST POP POP JUMP JUMPDEST PUSH1 0x1F DUP3 GT ISZERO PUSH2 0x13CA JUMPI PUSH2 0x139B DUP2 PUSH2 0x1275 JUMP JUMPDEST PUSH2 0x13A4 DUP5 PUSH2 0x1287 JUMP JUMPDEST DUP2 ADD PUSH1 0x20 DUP6 LT ISZERO PUSH2 0x13B3 JUMPI DUP2 SWAP1 POP JUMPDEST PUSH2 0x13C7 PUSH2 0x13BF DUP6 PUSH2 0x1287 JUMP JUMPDEST DUP4 ADD DUP3 PUSH2 0x1367 JUMP JUMPDEST POP POP JUMPDEST POP POP POP JUMP JUMPDEST PUSH0 DUP3 DUP3 SHR SWAP1 POP SWAP3 SWAP2 POP POP JUMP JUMPDEST PUSH0 PUSH2 0x13EA PUSH0 NOT DUP5 PUSH1 0x8 MUL PUSH2 0x13CF JUMP JUMPDEST NOT DUP1 DUP4 AND SWAP2 POP POP SWAP3 SWAP2 POP POP JUMP JUMPDEST PUSH0 PUSH2 0x1402 DUP4 DUP4 PUSH2 0x13DB JUMP JUMPDEST SWAP2 POP DUP3 PUSH1 0x2 MUL DUP3 OR SWAP1 POP SWAP3 SWAP2 POP POP JUMP JUMPDEST PUSH2 0x141B DUP3 PUSH2 0xE2C JUMP JUMPDEST PUSH8 0xFFFFFFFFFFFFFFFF DUP2 GT ISZERO PUSH2 0x1434 JUMPI PUSH2 0x1433 PUSH2 0xCC1 JUMP JUMPDEST JUMPDEST PUSH2 0x143E DUP3 SLOAD PUSH2 0x1125 JUMP JUMPDEST PUSH2 0x1449 DUP3 DUP3 DUP6 PUSH2 0x1389 JUMP JUMPDEST PUSH0 PUSH1 0x20 SWAP1 POP PUSH1 0x1F DUP4 GT PUSH1 0x1 DUP2 EQ PUSH2 0x147A JUMPI PUSH0 DUP5 ISZERO PUSH2 0x1468 JUMPI DUP3 DUP8 ADD MLOAD SWAP1 POP JUMPDEST PUSH2 0x1472 DUP6 DUP3 PUSH2 0x13F7 JUMP JUMPDEST DUP7 SSTORE POP PUSH2 0x14D9 JUMP JUMPDEST PUSH1 0x1F NOT DUP5 AND PUSH2 0x1488 DUP7 PUSH2 0x1275 JUMP JUMPDEST PUSH0 JUMPDEST DUP3 DUP2 LT ISZERO PUSH2 0x14AF JUMPI DUP5 DUP10 ADD MLOAD DUP3 SSTORE PUSH1 0x1 DUP3 ADD SWAP2 POP PUSH1 0x20 DUP6 ADD SWAP5 POP PUSH1 0x20 DUP2 ADD SWAP1 POP PUSH2 0x148A JUMP JUMPDEST DUP7 DUP4 LT ISZERO PUSH2 0x14CC JUMPI DUP5 DUP10 ADD MLOAD PUSH2 0x14C8 PUSH1 0x1F DUP10 AND DUP3 PUSH2 0x13DB JUMP JUMPDEST DUP4 SSTORE POP JUMPDEST PUSH1 0x1 PUSH1 0x2 DUP9 MUL ADD DUP9 SSTORE POP POP POP JUMPDEST POP POP POP POP POP POP JUMP JUMPDEST PUSH32 0x496E76616C696420696E64657800000000000000000000000000000000000000 PUSH0 DUP3 ADD MSTORE POP JUMP JUMPDEST PUSH0 PUSH2 0x1515 PUSH1 0xD DUP4 PUSH2 0xE36 JUMP JUMPDEST SWAP2 POP PUSH2 0x1520 DUP3 PUSH2 0x14E1 JUMP JUMPDEST PUSH1 0x20 DUP3 ADD SWAP1 POP SWAP2 SWAP1 POP JUMP JUMPDEST PUSH0 PUSH1 0x20 DUP3 ADD SWAP1 POP DUP2 DUP2 SUB PUSH0 DUP4 ADD MSTORE PUSH2 0x1542 DUP2 PUSH2 0x1509 JUMP JUMPDEST SWAP1 POP SWAP2 SWAP1 POP JUMP JUMPDEST PUSH32 0x4E487B7100000000000000000000000000000000000000000000000000000000 PUSH0 MSTORE PUSH1 0x32 PUSH1 0x4 MSTORE PUSH1 0x24 PUSH0 REVERT INVALID LOG2 PUSH5 0x6970667358 0x22 SLT KECCAK256 0xD2 TLOAD 0x21 ORIGIN 0xCC 0xD7 ADDMOD 0xC TSTORE 0xCB SSTORE ORIGIN 0x2C 0xAA PUSH17 0x10A867F61E21A0F16854D60786B489F69D PUSH5 0x736F6C6343 STOP ADDMOD BYTE STOP CALLER "
				},
				"gasEstimates": {
					"creation": {
						"codeDepositCost": "1109600",
						"executionCost": "25417",
						"totalCost": "1135017"
					},
					"external": {
						"addProduct(string,string,string)": "infinite",
						"fakeReports(uint256)": "infinite",
						"getFakeReport(uint256)": "infinite",
						"getFakeReportsCount()": "2462",
						"owner()": "2572",
						"products(string)": "infinite",
						"reportFake(string,string,string)": "infinite",
						"verifyProduct(string)": "infinite"
					}
				},
				"methodIdentifiers": {
					"addProduct(string,string,string)": "0e34b00e",
					"fakeReports(uint256)": "d2dd015e",
					"getFakeReport(uint256)": "c9237eef",
					"getFakeReportsCount()": "960394cf",
					"owner()": "8da5cb5b",
					"products(string)": "0186a423",
					"reportFake(string,string,string)": "880162b1",
					"verifyProduct(string)": "92efc453"
				}
			},
			"storageLayout": {
				"storage": [
					{
						"astId": 19,
						"contract": "contracts/test.sol:VoltVerify",
						"label": "owner",
						"offset": 0,
						"slot": "0",
						"type": "t_address"
					},
					{
						"astId": 24,
						"contract": "contracts/test.sol:VoltVerify",
						"label": "products",
						"offset": 0,
						"slot": "1",
						"type": "t_mapping(t_string_memory_ptr,t_struct(Product)10_storage)"
					},
					{
						"astId": 28,
						"contract": "contracts/test.sol:VoltVerify",
						"label": "fakeReports",
						"offset": 0,
						"slot": "2",
						"type": "t_array(t_struct(Report)17_storage)dyn_storage"
					}
				],
				"types": {
					"t_address": {
						"encoding": "inplace",
						"label": "address",
						"numberOfBytes": "20"
					},
					"t_array(t_struct(Report)17_storage)dyn_storage": {
						"base": "t_struct(Report)17_storage",
						"encoding": "dynamic_array",
						"label": "struct VoltVerify.Report[]",
						"numberOfBytes": "32"
					},
					"t_bool": {
						"encoding": "inplace",
						"label": "bool",
						"numberOfBytes": "1"
					},
					"t_mapping(t_string_memory_ptr,t_struct(Product)10_storage)": {
						"encoding": "mapping",
						"key": "t_string_memory_ptr",
						"label": "mapping(string => struct VoltVerify.Product)",
						"numberOfBytes": "32",
						"value": "t_struct(Product)10_storage"
					},
					"t_string_memory_ptr": {
						"encoding": "bytes",
						"label": "string",
						"numberOfBytes": "32"
					},
					"t_string_storage": {
						"encoding": "bytes",
						"label": "string",
						"numberOfBytes": "32"
					},
					"t_struct(Product)10_storage": {
						"encoding": "inplace",
						"label": "struct VoltVerify.Product",
						"members": [
							{
								"astId": 3,
								"contract": "contracts/test.sol:VoltVerify",
								"label": "productId",
								"offset": 0,
								"slot": "0",
								"type": "t_string_storage"
							},
							{
								"astId": 5,
								"contract": "contracts/test.sol:VoltVerify",
								"label": "serialNumber",
								"offset": 0,
								"slot": "1",
								"type": "t_string_storage"
							},
							{
								"astId": 7,
								"contract": "contracts/test.sol:VoltVerify",
								"label": "barcode",
								"offset": 0,
								"slot": "2",
								"type": "t_string_storage"
							},
							{
								"astId": 9,
								"contract": "contracts/test.sol:VoltVerify",
								"label": "isAuthentic",
								"offset": 0,
								"slot": "3",
								"type": "t_bool"
							}
						],
						"numberOfBytes": "128"
					},
					"t_struct(Report)17_storage": {
						"encoding": "inplace",
						"label": "struct VoltVerify.Report",
						"members": [
							{
								"astId": 12,
								"contract": "contracts/test.sol:VoltVerify",
								"label": "productId",
								"offset": 0,
								"slot": "0",
								"type": "t_string_storage"
							},
							{
								"astId": 14,
								"contract": "contracts/test.sol:VoltVerify",
								"label": "sellerName",
								"offset": 0,
								"slot": "1",
								"type": "t_string_storage"
							},
							{
								"astId": 16,
								"contract": "contracts/test.sol:VoltVerify",
								"label": "sellerDetails",
								"offset": 0,
								"slot": "2",
								"type": "t_string_storage"
							}
						],
						"numberOfBytes": "96"
					}
				}
			},
			"userdoc": {
				"kind": "user",
				"methods": {},
				"version": 1
			}
		}
	}
}